:020000040000FA
:060000000212460207AFE8
:03002B0002107D43
:03003300020DFDBE
:03004300020F1990
:030053000206E0C2
:03006B00020DE3A0
:100083000207440101FF01010503010F10FEFFBA3E
:100093001ABA1ABA1ABA1A70196A19BA1A59270067
:1000A3000000001D28000000000C0000000C0001EF
:1000B300FFFF0B0E05778000010101003C050000E6
:1000C30000B105E80364006400B8010202000800FF
:1000D30000050207051E02051E020A0A03B80B02E9
:1000E300803E0102F1FF011496511800020206300E
:1000F300313233343536373839414243444546008B
:10010300286E756C6C20706F696E74657229003F80
:100113003F3F000000807F0000803FF9021550B789
:1001230043BA510000204100E7DB2E0000A040103D
:10013300000000080000000A00000012129260464E
:10014300121265603DE9687008F618F618F618F69D
:1001530022748067F7120172090909748067F72214
:10016300121265601D1212927005191919801A1264
:100173001119701F12112EC37003E6673319191971
:1001830040071818182208080874FFF618F618F61E
:1001930018F62212112E60171212D1702192F0124A
:1001A30012DB7019501720F014080808090909E731
:1001B300F61819E7F61819E7F61819E7F6221212D6
:1001C300DB60E6E869701F0808E62480F608E43679
:1001D300F618547FB47F0CE654806007F6E418F6F3
:1001E30018F622181822E9C6CC08C6CD08C6CE08D0
:1001F300C6CFC0E0E8C0E0EAC0E0EBC0E009E9F840
:1002030009E7FA09E7FBE6F918E6F8C3EC98ED9974
:10021300EE9AEBC2E7F5F0EFC2E795F0500E600CF3
:10022300EBCFFBEACEFAE9CDF9E8CCF8EAA2E7D2C4
:10023300E7FAEB33FB13F5F0EEA2E7D2E7FEEF3379
:10024300FFC5F013A2E730E601B313C5F0C3C0E066
:10025300C0F07F00C39BFB605B9418600C401AD016
:10026300E023F9D0E0F80203418AF0E9486003D2C1
:10027300F0E4AFF0FAF9F8803BEB30E40D89F0EAF3
:100283006003D2F0E4AFF0F9CAF8EB30E30D88F085
:10029300EF6002D2F0AFF0E4CAC9F8EB5407601480
:1002A300FBC3EA13FAE913F9E813F8EF135002D288
:1002B300E0FFDBEDD0E0C0E030E739C3E49FFFF5BA
:1002C300F0EC98FC42F0ED99FD42F0EE9AFE42F01C
:1002D300D0E0F9D0E0F8E5F0607AE923F9EE20E721
:1002E30042D8028067C3EF33FFEC33FCED33FDEEFE
:1002F30033FE80EAEC28FCED39FDEE3AFED0E02334
:10030300F9D0E0F84002801BC3EE13FEED13FDECC1
:1003130013FCEF135002D2E0FF08B800067F7F748E
:10032300FF802EEF3350178CF020F00260100CBCCE
:10033300000C0DBD00080EBE000408E860DFE933C1
:10034300E813FFEE2313FE4F4D4C8008E95480FF62
:10035300E4FEFDFCEE33EF33F47004FCFD7E80D04D
:10036300E0FBD0E0FAD0E0F8D0E0CFC618CEC61854
:10037300CDC618CCC6F922121265700418181822BB
:10038300121292700D74FFF61819F61819F618194F
:10039300F622E7548066F61212DB700F1212D17048
:1003A300F014F608F608F608F680D11212D1700C94
:1003B300F608F608768008E6447F80EC1211317067
:1003C3000C12111C60BFE65480F6E480BB12111CB2
:1003D300700519191980A5E869700C763F187680A5
:1003E30018F618F6E8F922E6CDC0E018ECC0E0E60E
:1003F30033CD33CDD313F6E719FCE7191933CC33D7
:10040300C3947F400ECD9D502408E65480F6E41833
:10041300F6800FF4043D14501408E6447FF6187672
:1004230080E418F618F6D0E0FCD0E0FD22CCD3131C
:10043300CCFD18E4C6CBC0E018E4C6CAC0E0080887
:10044300ED08C633E613F618E433C675F003C3CAE2
:1004530097CA09CB97CB199C40047D08802EBD0019
:100463000302052316B6FF050606081618C3CA338A
:10047300CACB33CB33CA27CA09CB37CB193CC37D8D
:1004830008803E187D0820E75CC633C6CA33CACB52
:1004930033CB33DDF1D5F0EB30E77BCA97CA09CB19
:1004A300974ACB199C406F4B7025E620E02180666C
:1004B300187D08C3CA97CA09CB97CB199CD3C633F7
:1004C300C6CA33CACB33CB3350C9DDE7D5F0E1D34A
:1004D300E4C636C608C636C608C636C608C636C615
:1004E3001818188031C3CA97CA09CB97CB199CB384
:1004F3004097C633C6CA33CACB33CB33DD34D5F0CA
:100503002EC6A2E0C640C8CA27CA09CB37194A700B
:10051300BECB3CB480B90808E63308E633601F1845
:100523001818D0E0FAD0E0FBD0E0FCD0E0FD2218B0
:100533007D08CA27CA09CB37CB193CD3808013F671
:1005430018E4B67F11F618B6FF0EF618C60470D27B
:100553000808768080CAF618F618F680C5001212CD
:1005630065604F1212926012E7548066F6121119F9
:1005730070111212D1703B090909F4F618F618F636
:1005830018F62212112E70151212DB08080860EA01
:10059300E6447FF618768018E4F618F6221212DB8A
:1005A30060161212D17012E4F608F608F608E65443
:1005B30080F609090918181822EAC0E0EBC0E0EC3C
:1005C300C0E0EDC0E0E687F0A4FBACF008E687F0FE
:1005D300A42CFCE435F0FA1809E687F0A42C4B6050
:1005E300027401CA35F0FCE433FB09E687F0D2F765
:1005F300A42CCB35F0FC1908E687F0A42BCC35F0FE
:10060300FBE433FD0819E687F0D2E7A42C4ACB3587
:10061300F0CD3400FC09E687F0D2E7A42DCC35F009
:10062300FDE433FA0918E687F0D2F7A42CCD35F0B0
:10063300CA3400FC08E687F0D2E7D2F7A42ACC3507
:10064300F07A7E20E70B0ACB33CBCD33CDCC33CC42
:1006530033CB3350147004ED30E00ED2F1E4CD3DD2
:10066300CDCC3CCC3B5005DA05C2F1EB547FC6330D
:1006730008E63392F0FBE73309E733C39A502D2B97
:1006830070190C0D4C4D70151806E608C333700D28
:1006930020F10AA2F013F6E418800B4024E4F630AC
:1006A300F002768018F618F618F68024D33B14501F
:1006B3001074FFA2F013F6187680E418F618F6808B
:1006C3000FA2F013F618E63303F618ECF618EDF65E
:1006D300D0E0FDD0E0FCD0E0FBD0E0FA22C0E07433
:1006E300F2120ACFA2AFE433FED2AFE5A7FFE5A132
:1006F300F5085F541060061221AA75A1EFE5085FA3
:10070300540860081221B075A1F7802BEFA2E0C056
:10071300D0E508A2E092F01211A4158182F05017DF
:10072300906198E0F8900A8BE0C398A2D265D03329
:100733005002E8F075A1FEEEA2E092AF7F01020B3A
:100743002EC0E074F2120ACFA2AFE433FED2AF9010
:1007530061A4E0F8759B00E5915854086008759111
:10076300F71221F8802AE59158541060087591EF2B
:100773001221FE801BE8A2E0C0D0E591A2E092F036
:100783001211A4158182F05007E0C2E0F012234257
:100793009061A3E0F8E5E9585404600E122318753C
:1007A300E9FB906193E0A2E640F2808BC0E074F233
:1007B300120ACFA2AFE433FED2AF9061A5E0F8E511
:1007C300BF585404600675BFFB12235A02073AC38D
:1007D300E498F8E499F91208138026C3E49AFAE43A
:1007E3009BFBE920E7E9120813E498F8E499F9225E
:1007F300C3E498F8E499F9120813E498F8E499F932
:10080300C3E49AFAE49BFB22EB20E7CFE920E7E07D
:10081300B90010BB0008E88AF084F8AAF022E4FBD0
:10082300C8FA22EB70227B10C833C8C933C93350CE
:1008330007C39AC3DBF280069A50012ADBEAC83366
:10084300F4C8C933F4C9FA2275F008E4C833C8C937
:1008530033C933C99AC99B5004C92AC93BD5F0ECA3
:10086300FBC833F4C8E4C9FA221208AC20F01430F0
:10087300E72B74FFFCFBFA747F8022E4FCFBFA7421
:1008830080801AB48008BC00F2BB00EF800F50EBED
:10089300F9E4C39AFAE49BFBE49CFCE499C6CC1804
:1008A300C6CB18C6CA18C6F922E4C9C608CAC60800
:1008B300CBC6D3330308CCC63392F0C3947F402E08
:1008C30094184019C9B90704CACBCC225025C309CF
:1008D300CA33CACB33CBCC33CC33D9F422F4600D37
:1008E300C9CCC313CB13CBCA13CAD9F6CC22E4FCAD
:1008F300FBFA2214FCFBFA22080808EAC0E0EBC06A
:10090300E086F0E7A4FA180986F0E7A42AFA1809A2
:1009130086F0E7A42AFA180986F0E7A42AFA1986CA
:10092300F0E7A4FBE5F02AFA190886F0E7A42BFB0D
:10093300E5F03AFA190886F0E7A42BFBE5F03AFA5A
:1009430018180986F0E7A4C5F02BFBE43AFA190856
:10095300E7C5F0C6A426F6E5F03BFBE43AFA1886B1
:10096300F0E7A4F6E5F00826F6E43B08F6E43A08D7
:10097300F6D0E0FBD0E0FA22080808E630E71112CF
:100983001157120993080808C64480C6181818227C
:10099300181818E9799EC608CAC608CBC608CCC67B
:1009A300C370207996CACBCC7019798ECBCC7013D7
:1009B3007986CC700EF9802ACA33CACB33CBCC33B9
:1009C300CC331930E7F2CCCBCA3350147004EA307D
:1009D300E00DE4CA3ACACB3BCBCC3CCC500209C3B2
:1009E300E913C6CC182313C6CB18C6CA18C6F922F6
:1009F300E4CFC0E0E4CEC0E0E4CDC0E0E4CCC0E0AE
:100A030075F020C3E633F608E633F608E633F60856
:100A1300E633F6181818EC33FCED33FDEE33FEEF36
:100A230033FFC3EC9709ED9709EE9709EF9719196F
:100A330019400FFFEC97FC09ED97FD09EE97FE199E
:100A43001906D5F0BEECF709EDF709EEF709EFF754
:100A5300191919D0E0FCD0E0FDD0E0FED0E0FF2270
:100A63002518C582C0E0E51934FFC583C0E0E51849
:100A7300C3958224F810AF088583198582188008EE
:100A8300858319858218D2AFCEF0A3E520F0A37831
:100A930008E608F0A3DEFAEFF0A3E58124FAF8E60E
:100AA30008F0A3E608F0A3E608F0A30808E608F0B8
:100AB300A3E608F0A315811581D0E0FED0E0F81578
:100AC3008115811581E8C0E0EEC0E022C0D0251871
:100AD300C582C0E0E51934FFC583C0E0E518C395BE
:100AE3008224F310AF0885831985821880088583D3
:100AF30019858218D2AFC8F0A3E9F0A3EAF0A3EBFB
:100B0300F0A37908E709F0A3D8FAECF0A3EDF0A37A
:100B1300EEF0A3EFF0A3D0E0F0A3D0E0F0A3D0E099
:100B2300F0A3E520F0A3E5F0F0A32285198385184F
:100B330082E0C0E0A3E0F9A3E0FAA3E0FBA3780816
:100B4300E0F608A3DFFAE0FCA3E0FDA3E0FEA3E0E8
:100B5300FFA3E0C0E0A3E0C0E0A3E0F5D0A3E0F58D
:100B630020A3E0A3F5F010AF0885831985821880D0
:100B730008858319858218D2AFD082D083D0E0F85C
:100B8300D0E0321212C6B90003020BC8E49003018D
:100B93007852790E8002F0A3D8FCD9FA901052AAA9
:100BA30082AB8390008678B979018015E493A3AC76
:100BB30082AD838A828B83F0A3AA82AB838C828DDE
:100BC30083D8E9D9E775822D7583E67403120FDCA8
:100BD3007582607583267400120FDC0E0075F010A9
:100BE3008E1A8F1B85821F85831E85188285198324
:100BF300E0CEA3E0CF851F82851E83EBC9EAC8ED53
:100C0300CBECCAC3E833C8E933C9EA33CAEB33CB05
:100C1300C3EA9EF51DEB9FF51CB35004AB1CAA1D44
:100C2300EC33CCED33CDD5F0DAAE1AAF1B22121272
:100C330065601C12129260171212DB70071212D138
:100C43007001D322C0D01212D17006D0D0B322C308
:100C53002233D0D0501430E0F6C3E7960809E79664
:100C63000809E7960809E796B32220E0D5E6970836
:100C730009E6970809E6970809E697B322D083D0D7
:100C830082ECC0E0EDC0E0E493A3FCE493A3FDEDAC
:100C93004C600D120DA4EC24FFFCED34FFFD80EF3E
:100CA300E493A3FCE493A3FDED4C600D120E9EECC4
:100CB30024FFFCED34FFFD80EFD0E0FDD0E0FCE449
:100CC30093A3C0E0E493C0E022121265601B1212EA
:100CD3009260161212DB70071212D1600CB322C09D
:100CE300D01212D17005D0D022C32233D0D05013EA
:100CF30030E0EBC3E7960809E7960809E796080989
:100D0300E7962220E0E4E6970809E6970809E697C4
:100D13000809E69722851983851882E0A3FEE0A3DC
:100D2300F5207808E0A3F608DFFAE0A3FFE0A3C00C
:100D3300E0E0A3C0E0E0A3C0E0E0A3C0E0E0A3C024
:100D4300E010AF088582188583198008858218858D
:100D53008319D2AFD083D082020FE2D083D082E94D
:100D6300C0E0E493A3C386F0C5F095F0F908E493DB
:100D7300A386F0C5F095F0700BE493A3C3994005E7
:100D8300E9048002A3E475F002A42582F582E5F06C
:100D93003583F583D0E0F9E493A3C0E0E493C0E0A6
:100DA30022C0E0C3E49396087401939618400FE4BD
:100DB3009366700808740193661870007019A3A3F2
:100DC300C3E49396087401939618A3A3400DD0E04F
:100DD300D0E0D0E0020CBCA3A3A3A3A3A3D0E02242
:100DE300C0E074F2120ACFE589A2E150031220C6D3
:100DF300758900C2C57F01020B2EC0E074F2120A8E
:100E0300CFE58BA2E050031220C6758B00C2E880A9
:100E1300E47404800474028000CCC0E0EDC0E0E51B
:100E230018C39CCCAD1950011D10AF068C188D1939
:100E330080068C188D19D2AF120F5ED0E0FDD0E082
:100E4300FC2274028000CCC0E0EDC0E0E518C39C36
:100E5300CCAD1950011D10AF068C188D1980068C6E
:100E6300188D19D2AF120F3CD0E0FDD0E0FC221256
:100E73001265602512129260201212DB70030212B7
:100E8300D1080808E76670101819E766700A181980
:100E9300E76670041819E76622F422C0E0C0F08800
:100EA300F0E4936670080874019366187000A8F064
:100EB300A3A3700BD0F0D0E0D0E0D0E0020CBCA331
:100EC300A3D0F0D0E022D083D082CCC0E0E493A3BF
:100ED3006006120FBD1470FAE493A360061210C4E7
:100EE3001470FAD0E0FCE493A3C0E0E493C0E022E2
:100EF300C008C3E096F50808A3E096420808A3E0FB
:100F030096420808A3E0964208A2D265D033E508CA
:100F13007001D3D00822C0E074F2120ACFA2AFE46A
:100F230033FED2AFC2C0E5D1A2E45003122132EEA8
:100F3300A2E092AF7F01020B2ECAC0E0E493A3C5E7
:100F430082CCC582C583CDC583F0A3C582CCC582BF
:100F5300C583CDC583DAE5D0E0CA22CAC0E0E0A3E9
:100F6300C582CCC582C583CDC583F0A3C582CCC55C
:100F730082C583CDC583DAE6D0E0CA22C008C3E0C8
:100F830096F50808A3E096420808A3E096420808ED
:100F9300A3E09645087001D3D00822700908080819
:100FA300226016181818C6C333C608C633C608C647
:100FB30033C608C633C6D5E0EA22C0E0E493A3D320
:100FC3009C5010E493A3C39C400AD0E0D0E0D0E04F
:100FD300020EE6A3A3A3D0E022C09FF59FE473D043
:100FE3009F22D083D082C09FE493C0E0740193C05A
:100FF300E0740293F59F222518F58210AF08F518C7
:10100300400215198008F51840021519D2AF851949
:1010130083227404800A74038006740280027401BC
:10102300C0E0F404120FFAD0E01212A122C0D025BE
:101033001810AF08F518500205198008F51850026A
:101043000519D2AFD0D022BB0102E722C082C083F0
:1010530089828A83BB0003E08002E493D083D08239
:10106300226016080808C6C313C618C613C618C6D6
:1010730013C618C613C6D5E0EA22C0E0C0D0E8C044
:10108300E0E5A8D2AFC2C7A2E792AFD0E0F8D0D0D4
:10109300D0E032C3E0C696F608A3E0C696F608A3EE
:1010A300E0C696F608A3E0C696F622251810AF0808
:1010B300F518400215198008F51840021519D2AF2A
:1010C30022C0E0E493A36C7009D0E0D0E0D0E0024A
:1010D3000EE6A3A3D0E022C3E09608A3E09608A3FC
:1010E300E09608A3E096A2D265D03322E0667010A2
:1010F30008A3E066700A08A3E066700408A3E0662C
:1011030022E76670100809E766700A0809E7667047
:10111300040809E76622181818E6084608700AE664
:1011230008C3337005E633F4220822191919E709B5
:101133004709700AE709C3337005E733F42209222C
:10114300C3E096F008A3E096F008A3E096F008A3A6
:10115300E096F022181818E4C396F608E496F60809
:10116300E496F608E496F622E026F608A3E036F6BF
:1011730008A3E036F608A3E036F622E026F008A33B
:10118300E036F008A3E036F008A3E036F022E627C5
:10119300F60809E637F60809E637F60809E637F6EA
:1011A30022C0E0E8C0E0E58124FCF8E6A2E7D0E055
:1011B300F8D0E022E657F60809E657F60809E6579D
:1011C300F60809E657F622E056F008A3E056F008C1
:1011D300A3E056F008A3E056F022700422600D1835
:1011E300C6C333C608C633C6D5E0F41822E647F6AD
:1011F3000809E647F60809E647F60809E647F6222E
:10120300E056F608A3E056F608A3E056F608A3E076
:1012130056F622C6F4C608C6F4C608C6F4C608C6FF
:10122300F4C622C3E09608A3E09608A3E09608A3B9
:10123300E09622C3E7960809E7960809E7960809A6
:10124300E7962275D0007581407518017519030062
:10125300020B86E6F008A3E6F008A3E6F008A3E68F
:10126300F022E6084608C3134608336002E633F467
:1012730022600C08C6C313C618C613C6D5E0F422F1
:10128300E0F608A3E0F608A3E0F608A3E0F622E7F9
:10129300094709C3134709336002E733F422CAC07D
:1012A300E0E6F0A308DAFAD0E0FA22EAF0A3EBF0E2
:1012B300A3ECF0A3EDF022E0FAA3E0FBA3E0FCA390
:1012C300E0FD22E5C754F84401F5C7790122E7C3DD
:1012D3003319471947194722E6C3331846184618E6
:1012E30046222518F582E43519F58322C2AF75D657
:1012F3009F02000022120FE5982E00120FE5502FD7
:1013030000120FE5183000120FE5D83000120FE578
:101313001C3100120FE5413100120FE58431001238
:101323000FE5D13100120FE5293300120FE5AF337A
:1013330000120FE5CD3300120FE5F73300120FE56E
:10134300113400120FE5203400120FE52B34001284
:101353000FE5EB3400120FE5443500120FE50636B6
:1013630000120FE50E3600120FE5D23600120FE51C
:101373003E3700120FE5693800120FE57A38001284
:101383000FE5F03800120FE5823900120FE5DA3964
:1013930000120FE59A3A00120FE5C13A00120FE569
:1013A300D33A00120FE5263B00120FE5633B001210
:1013B3000FE5703B00120FE5F33C00120FE5483ECA
:1013C30000120FE57A3E00120FE50D3F00120FE504
:1013D300463F00120FE5923F00120FE5AE400012A8
:1013E3000FE5F74200120FE5024300120FE50D432C
:1013F30000120FE5174300120FE5224300120FE519
:101403003C4300120FE5464300120FE55043001220
:101413000FE55B4300120FE5834300120FE5DE4344
:1014230000120FE5024400120FE5264400120FE5F7
:10143300844400120FE5C84400120FE5E44400128F
:101443000FE55B4500120FE5934500120FE5DF45FD
:1014530000120FE53C4600120FE5F64600120FE5B9
:10146300DA4800120FE5334900120FE5634A001210
:101473000FE5894A00120FE5124C00120FE58E4F5B
:1014830000120FE5605100120FE5295300120FE51A
:10149300D65300120FE5415500120FE5E055001237
:1014A3000FE5255600120FE58F5600120FE59E56E5
:1014B30000120FE5255900120FE5D75A00120FE568
:1014C300445B00120FE5235C00120FE53C5D001244
:1014D3000FE5B95E00120FE5D85E00120FE52D5F30
:1014E30000120FE5326000120FE55A6000120FE59B
:1014F300B26000120FE5916100120FE5D561001291
:101503000FE5206200120FE58B6200120FE5CC633A
:1015130000120FE5306400120FE57E6500120FE53F
:10152300DE6700120FE50F6800120FE5C7690012AE
:101533000FE51C6A00120FE5206B00120FE5BD6B6F
:1015430000120FE5166C00120FE5C96C00120FE5CF
:101553006B6D00120FE50B6E00120FE5B06E0012FB
:101563000FE5CF8001120FE50E8101120FE55583C0
:1015730001120FE59F8301120FE5BA8401120FE5F3
:101583002A8501120FE55F8501120FE5D38601124B
:101593000FE5568901120FE57F8A01120FE5158BBE
:1015A30001120FE51D9401120FE5B29401120FE52C
:1015B300999701120FE58C9801120FE5ED9801122E
:1015C3000FE5099A01120FE5EE9B01120FE5FF9D4E
:1015D30001120FE5699E01120FE53B9F01120FE512
:1015E300F29F01120FE5FC9F01120FE52AA00112E1
:1015F3000FE5E7A001120FE5BEA101120FE585A2D9
:1016030001120FE537A301120FE560A301120FE5E5
:1016130082A301120FE5D8A501120FE5B0A60112AE
:101623000FE5F4A601120FE55CA701120FE514A85C
:1016330001120FE546A801120FE58AA801120FE572
:10164300C0A801120FE50CA901120FE561A901124F
:101653000FE566A901120FE5B9A901120FE5DEA98D
:1016630001120FE5EDAA01120FE551AB01120FE5CF
:10167300C1AB01120FE54DAC01120FE51AAF011218
:101683000FE5FEAF01120FE581B101120FE5B7B30C
:1016930001120FE565B401120FE515B501120FE54F
:1016A30056B701120FE5F9B701120FE540B8011261
:1016B3000FE5ECB901120FE500BA01120FE50ABA02
:1016C30001120FE532BA01120FE53EBA01120FE51E
:1016D3005DBA01120FE542BC01120FE579BC01129C
:1016E3000FE583BC01120FE5B9BC01120FE508BE7B
:1016F30001120FE54CBE01120FE5F4BE01120FE516
:10170300D7BF01120FE582C001120FE5CEC101124E
:101713000FE5CCC201120FE572C301120FE502C43B
:1017230001120FE519C401120FE550C401120FE5B0
:101733005AC401120FE565C401120FE583C40112F7
:101743000FE5C7C401120FE524C501120FE549C512
:1017530001120FE563C501120FE5EFC501120FE595
:101763000CC701120FE579C701120FE560C801121A
:101773000FE587C801120FE5FBC801120FE576C913
:1017830001120FE57ACA01120FE570CB01120FE5C2
:101793001FCC01120FE532CD01120FE5CECD0112A0
:1017A3000FE55BCE01120FE539CF01120FE571CFC3
:1017B30001120FE5C9CF01120FE592D001120FE517
:1017C300B3D001120FE53AD101120FE55ED1011238
:1017D3000FE580D101120FE5C9D101120FE5DFD367
:1017E30001120FE5C6D401120FE577D501120FE5FB
:1017F300ADD701120FE5FDD701120FE53DD8011258
:101803000FE57FD801120FE5DBD801120FE509D9E7
:1018130001120FE52DD901120FE580D901120FE551
:10182300AED901120FE5E7D901120FE53CDA011237
:101833000FE5A2DA01120FE5F6DB01120FE519DE5F
:1018430001120FE586DE01120FE5AFDE01120FE58F
:101853003ADF01120FE5A1DF01120FE5ECDF011200
:101863000FE510E001120FE534E001120FE58FE000
:1018730001120FE5AAE001120FE563E101120FE582
:10188300CAF703120FE509F803120FE57880021275
:101893000FE5BE8002120FE59E8102120FE5A082C2
:1018A30002120FE5A38302120FE52F8502120FE543
:1018B3008D8502120FE54A8602120FE56887021230
:1018C3000FE5D98702120FE5158802120FE5638829
:1018D30002120FE56D8802120FE5B18802120FE5BF
:1018E3000D8902120FE5A88902120FE5258A02125B
:1018F3000FE5F48A02120FE58D8B02120FE5AD8B13
:1019030002120FE5E38B02120FE5148C02120FE5AE
:10191300D58C02120FE5E58C02120FE5398D021208
:101923000FE5548D02120FE5668D02120FE56F8DE0
:1019330002120FE5C98D02120FE5258E02120FE583
:10194300718E02120FE58C8E02120FE5BD8E02120C
:101953000FE5DA8E02120FE5E68E02120FE55A90BA
:1019630002120FE5739002120FE5DA9002120FE5EF
:10197300ED9002120FE5FB9002120FE5AF910212F8
:101983000FE5939202120FE5999302120FE5239448
:1019930002120FE52D9402120FE59A9402120FE53D
:1019A300B19402120FE5E39402120FE51C950212A3
:1019B3000FE5469502120FE5A79502120FE5C795AD
:1019C30002120FE5E59502120FE52B9602120FE5C1
:1019D300519702120FE59E9702120FE5CD9702125F
:1019E3000FE5439802120FE56B9802120FE5A498D6
:1019F30002120FE5B29802120FE50A9902120FE5DF
:101A0300599902120FE5989902120FE5C89902122B
:101A13000FE5F49902120FE5FF9902120FE51D9AE3
:101A230002120FE5DF9A02120FE5E99A02120FE59F
:101A3300249B02120FE53A9B02120FE58F9B0212C1
:101A43000FE5A39B02120FE5B19C02120FE5C49CA4
:101A530002120FE5D99C02120FE57B9D02120FE5DE
:101A6300FE9D02120FE5BC9E02120FE5C79E0212F5
:101A73000FE5F39F02120FE50FA002120FE561A01D
:101A830002120FE5A0A002120FE5B5A002120FE5A6
:101A930017A102120FE5A6A102120FE5F1A102128E
:101AA3000FE542A402120FE5C0A402120FE535A50B
:101AB30002120FE557A702120FE56FA702120FE5F7
:101AC30072A702120FE57EA702120FE592A7021278
:101AD3000FE59AA702120FE5CDA702120FE57DA825
:101AE30002120FE5F3A802120FE566A902120FE531
:101AF3001AAA02120FE5CFAA02120FE5EEAA0212EA
:101B03000FE58EAB02120FE59AAB02120FE5C5ABE0
:101B130002120FE5C8AB02120FE532AC02120FE559
:101B23005AAD02120FE532AE02120FE5BDAE02123C
:101B33000FE5D6AF02120FE593B002120FE5CCB05A
:101B430002120FE5FDB002120FE5BBB102120FE561
:101B5300EBB102120FE5C6B202120FE55FB3021238
:101B63000FE5EAB302120FE59BB402120FE51EB5AF
:101B730002120FE550B502120FE591B502120FE5FF
:101B830027F501120FE58CF501120FE5C9F50112D6
:101B93000FE518F601120FE52EF801120FE511FA01
:101BA30001120FE57BFD01120FE5B6FD01120FE5F2
:101BB300D8FD01120FE53BFE01120FE56FFE011286
:101BC3000FE592FE01120FE5BFFE01120FE52AE4B5
:101BD30002120FE5D89D03120FE5569E03120FE57F
:101BE3008C9E03120FE5F89E03120FE56BA0031200
:101BF3000FE587A003120FE5CCA003120FE55AA14E
:101C030003120FE5B3A103120FE5E0A203120FE5E0
:101C1300F2A303120FE54FA403120FE5BBA40312B3
:101C23000FE51CA503120FE55DA503120FE50AA638
:101C330003120FE51CA703120FE547A703120FE5D5
:101C430092A703120FE5D9A703120FE5E82D00129F
:101C53000FE526A903120FE5D1EB03120FE501EC03
:101C630003120FE556EC03120FE5E1B003120FE583
:101C73002DB103120FE59BB103120FE5BCB10312A3
:101C83000FE56CB203120FE575B203120FE5C8B28C
:101C930003120FE5F1B203120FE558B303120FE578
:101CA300E9B303120FE52BB403120FE575B4031266
:101CB3000FE5D4B403120FE500B503120FE591B598
:101CC30003120FE5D0B503120FE50FB603120FE5AC
:101CD30044B603120FE556B603120FE568B60312B6
:101CE3000FE587B603120FE590B603120FE546B76B
:101CF30003120FE586B703120FE51CF403120FE579
:101D0300FBE303120FE531E403120FE57AE4031258
:101D13000FE5CAE503120FE59DE101120FE5DCE2D1
:101D230001120FE518E301120FE5D7E401120FE5E5
:101D330000E501120FE593E701120FE5D7E7011262
:101D43000FE560E901120FE5F8E901120FE560EA1A
:101D530001120FE501EB01120FE543EB01120FE551
:101D630083EB01120FE50EED01120FE57EEE01127A
:101D73000FE5A3F001120FE5D1F001120FE5F8F022
:101D830001120FE501F101120FE588F101120FE5D0
:101D9300A6F401120FE54DF903120FE563F90312DF
:101DA3000FE57FF703120FE560D403120FE573D439
:101DB30003120FE510D503120FE54BD503120FE500
:101DC30066D503120FE58BD503120FE5D0D50312A9
:101DD3000FE501D603120FE532D603120FE5B8D78C
:101DE30003120FE5EFF403120FE52CF503120FE5D1
:101DF3006EF503120FE57EF503120FE588F5031266
:101E03000FE5C6E103120FE501E203120FE58BE2D2
:101E130003120FE557F803120FE560F803120FE5FD
:101E230051E402120FE5A6E402120FE58FE5021258
:101E33000FE528E602120FE572E602120FE5D4E67B
:101E430002120FE5E8E602120FE5CAE802120FE5F7
:101E530045E902120FE56FE902120FE548EB0212A2
:101E63000FE563EB02120FE5B2EB02120FE5C8EBCD
:101E730002120FE5D5EB02120FE509EC02120FE592
:101E830022EC02120FE5C2EC02120FE51CED021266
:101E93000FE56AED02120FE57DEE02120FE5EEF09B
:101EA30002120FE51CF102120FE5AAF102120FE56F
:101EB3000BF202120FE510F202120FE54CF20212BE
:101EC3000FE5AEF202120FE57EF302120FE5A3F364
:101ED30002120FE5ADF302120FE5B0F302120FE5A4
:101EE3001FF402120FE53AF402120FE54DF4021249
:101EF3000FE579F402120FE5B4F402120FE5B7F41B
:101F030002120FE5F3F402120FE531F703120FE5A6
:101F130049F703120FE59DA903120FE5ECA903127C
:101F23000FE58EAB03120FE54AAD03120FE592AD39
:101F330003120FE57AAE03120FE5ABAF03120FE501
:101F4300CDAF03120FE529B003120FE5ADB00312B5
:101F53000FE5FC6E00120FE5276F00120FE50A7004
:101F630000120FE58F7000120FE5F87000120FE5F5
:101F7300447100120FE5C37100120FE55572001290
:101F83000FE5E17200120FE5237300120FE56C7782
:101F930000120FE5EC7800120FE5BC7900120FE593
:101FA300E37900120FE5447C00120FE5D07C0012A8
:101FB3000FE5EA7D00120FE5C97E00120FE54B7FA6
:101FC30000120FE54F9003120FE5099103120FE57D
:101FD3007B9103120FE5179203120FE58792031209
:101FE3000FE5409503120FE5179603120FE584964C
:101FF30003120FE5019803120FE5CB9803120FE5C7
:10200300129A03120FE5259B03120FE5BE9B0312E1
:102013000FE5849C03120FE5D2D703120FE526D8F0
:1020230003120FE57ED803120FE5C9D803120FE59B
:102033002BD903120FE5C4D903120FE52CDA0312CF
:102043000FE538DA03120FE538E803120FE569E804
:1020530003120FE523E903120FE589E903120FE5E4
:10206300ACE603120FE500F903120FE511F90312B1
:102073000FE512EA03120FE520EA03120FE5E37FEF
:1020830000120FE567FF01120FE577FF01120FE55D
:1020930092FF01120FE5F3FF01120FE51AF303128A
:1020A3000FE59FF303120FE503F403120FE5FCF0B2
:1020B30003120FE51EF103120FE588F103120FE57A
:1020C30093F103120FE5D7F103120FE568FE021235
:1020D3000FE576FE02120FE59BFE02120FE5B8FE36
:1020E30002120FE5D5FE02120FE509FF02120FE5FA
:1020F3003AFF02120FE556CD03120FE564CD03122A
:102103000FE5DECD03120FE5C2CE03120FE57BD040
:1021130003120FE52BF903120FE5ABC903120FE509
:1021230017CA03120FE521CB03120FE57ACC031272
:102133000FE5D5CC03120FE52ACD03120FE538CDF9
:1021430003120FE54CCD03120FE56CBC03120FE530
:10215300C1BC03120FE5BDBE03120FE5EFBE0312B0
:102163000FE511BF03120FE52ABF03120FE543BFAB
:1021730003120FE54DC003120FE5E8C003120FE58C
:1021830055ED03120FE579ED03120FE592ED0312FE
:102193000FE5C5ED03120FE5F6ED03120FE524EE8F
:1021A30003120FE586EE03120FE595EE03120FE51A
:1021B3009FEE03120FE5ACEE03120FE573DA031281
:1021C3000FE599DA03120FE5D6DA03120FE5E5DA24
:1021D30003120FE504DB03120FE56CDB03120FE5BB
:1021E30075DB03120FE5D4DB03120FE5F8DB0312F3
:1021F3000FE5B7DC03120FE5C4DC03120FE5D5DCF2
:1022030003120FE597F803120FE5B4F803120FE575
:102213005FC103120FE5BDC203120FE5CAC2031269
:102223000FE5DDC203120FE5FCC203120FE512C373
:1022330003120FE526C303120FE59BC303120FE539
:1022430000C403120FE5B0C403120FE585C50312E2
:102253000FE595C503120FE5A4C503120FE5A7F516
:1022630003120FE5CBF503120FE5F3F503120FE5A8
:102273001BF603120FE503DD03120FE52ADD03123C
:102283000FE54BDD03120FE5B0DD03120FE569DF48
:1022930003120FE582DF03120FE58EDF03120FE552
:1022A300A2DF03120FE5C0DF03120FE5CADF03123B
:1022B3000FE5D4DF03120FE5E7DF03120FE53AE082
:1022C30003120FE573E003120FE5A2E003120FE51B
:1022D300F0E003120FE53FE103120FE55AE10312A9
:1022E3000FE564E103120FE575E103120FE5BBE1AE
:1022F30003120FE5E0F603120FE52CF502120FE5CA
:1023030056F502120FE572F502120FE585F502127A
:102313000FE59BF502120FE5F8F502120FE52BF618
:1023230002120FE567FA02120FE58DFB02120FE5A9
:10233300C0FB02120FE50CFC02120FE538FD02127E
:102343000FE560FD02120FE575FD02120FE585FD35
:1023530002120FE5C9FD02120FE52AFE02120FE574
:102363003AFE02120FE5B6EE03120FE5D1EE0312A9
:102373000FE5FAEE03120FE514EF03120FE539EF41
:1023830003120FE558EF03120FE570EF03120FE589
:102393009EEF03120FE5B8EF03120FE513F80312D4
:1023A3000FE5E0D003120FE5E7D003120FE5F3D1F9
:1023B30003120FE523D203120FE549D203120FE5EF
:1023C3006CD203120FE58ED203120FE5C8D20312AB
:1023D3000FE52ED303120FE567D303120FE5B3D333
:1023E30003120FE5E0D303120FE500D403120FE548
:1023F3000EF203120FE526F203120FE514F3031294
:102403000FE517F303120FE5E9EF03120FE55BF096
:1024130003120FE599F003120FE5DAF003120FE54B
:10242300DDC503120FE5FCC503120FE54BC603120E
:102433000FE567C603120FE598C603120FE5A8C69A
:1024430003120FE5B5C603120FE5C2C603120FE56B
:10245300AEC703120FE5ECC703120FE5F6C703126D
:102463000FE506C903120FE511C903120FE523C9CE
:1024730003120FE52CC903120FE536C903120FE54A
:10248300AFB703120FE5F4BB03120FE502BC03124F
:102493000FE5D3F803120FE540F603120FE56AF6D2
:1024A30003120FE56DF903120FE5008003120FE528
:1024B3001E8503120FE50CE402120FE5D8E20212A7
:1024C3000FE535E202120FE5E8E002120FE593DEB5
:1024D30002120FE529DE02120FE5E1DD02120FE51C
:1024E30053DD02120FE546DD02120FE540DA021258
:1024F3000FE5972D00120FE5702D00120FE5A2D7FF
:1025030002120FE56BD602120FE52C2D00120FE518
:10251300F12C00120FE5BFD502120FE505D402120C
:102523000FE5B5D102120FE53CD102120FE5E3D05E
:1025330002120FE573D002120FE54AD002120FE523
:102543002ACE02120FE5F6CD02120FE5C3CD021219
:102553000FE5A7CD02120FE5C0CC02120FE578CC30
:1025630002120FE5C3CA02120FE543CA02120FE5B6
:1025730040CA02120FE541C902120FE50FC9021248
:102583000FE54CC802120FE577C602120FE508C625
:1025930002120FE5CB2C00120FE5B22C00120FE54F
:1025A3005E2C00120FE5BA2B00120FE5302B001240
:1025B3000FE5DAC502120FE5D7C502120FE5C4C550
:1025C30002120FE5CF2A00120FE56FC502120FE5C5
:1025D3005EC502120FE550C402120FE51AC40212BF
:1025E3000FE57D2A00120FE56BA803120FE5C8C3A0
:1025F30002120FE569C302120FE538C302120FE599
:1026030000C002120FE5C0BF02120FE5B4BF0212F1
:102613000FE514BF02120FE554BE02120FE5D6BB3D
:1026230002120FE567B902120FE525B902120FE591
:10263300F9B702120FE5AEB702120FE5EDB60212BB
:102643000FE530B602120FE5C6B502120FE500B66C
:1026530002120FE56B2A00120FE51BFF01000000B9
:1026630080FBE47300013636010100010201000121
:1026730003010001040106060502000007010034FE
:102683000801000F090401010D0100FF0E080000FD
:1026930017020000190100FF1A0100011B0100FECF
:1026A3001C0100081D0200001F01000120010001A0
:1026B300210200002301000F240200002601000173
:1026C30027010008280200FF2A0100072B0102400E
:1026D3002C0100002D0100012E0100012F0100FF3C
:1026E30030010B1C310800003A0100083B01000FC8
:1026F3002F01000003027102300160021102700217
:102703000102020202028002100261023A00410049
:102713006302730272026202430200021302380070
:102723000002000204021202000200020002000280
:1027330004020402370037003C024402000239005D
:102743000002000265020002350281020002050256
:102753008202830200020300710030016000110055
:10276300700031022003500480001000610000005B
:102773001400630073007200620043000000130042
:10278300060000000000040012000000000000002A
:10279300000004000400370037003C02440000003E
:1027A300000000000000650000003500810000000B
:1027B30005000000830000000304710402046004A8
:1027C30011047004020402040104020410046104ED
:1027D30000041404630473047204620443040004D5
:1027E3001304060400040004040412040004000497
:1027F30000040004510464000004000400044404C1
:10280300000400040004000465040004350481048A
:10281300640005040004830400040103710301033D
:102823000103010301030103220302030103100354
:10283300000300030003000300030003000342033B
:102843000003240306030003000304031203250308
:1028530023032503230304030403000300030003EA
:10286300440300030003230300036503210035032E
:102873008103000305030003000300030101710149
:102883000101010111010101310101010101800176
:10289300100161013B0014006301730172016201C5
:1028A30043010001130106013D013500040112013A
:1028B300000100010001000104010401330133019F
:1028C3003C014401320136000001000165010001B1
:1028D30035008101000105018201830100013600F9
:1028E3000100060000000F000000000000000000CF
:1028F3000000000003FFFF00000403FFFF0000FFD0
:10290300FF0FF4010005C4040320000100030B00C2
:102913000000000000000003010F0000DC1F130093
:10292300A01F0100DC1F02006A1F0300701F0400C8
:10293300761F05007C1F0600881FFFFF000001AA09
:102943001506D41508CE150BEC1510261502B01577
:1029530005C21507B6150C8C150D9E15FF00000357
:10296300EAF5E5D5D5C5B5A59595858575756565EF
:102973005555454535352525151505CA19FA19D077
:1029830019D619F419E819E219001A061A0C1A18BB
:102993001ADC19C419BE1900160F00000B150B021F
:1029A3000002220F32000006BA1ACC1AD21A941966
:1029B300D81A8E199A19CE18C81804190A19FE18AC
:1029C300B6181A1B381B3E1B201B2C1B261B303032
:1029D30016181920231A1C1E300C0E020B040B0AA6
:1029E3000708000F00383C3E363B3B352B432C3069
:1029F3003017181921301B1D1F3000011916181626
:102A0300161523030000034948424D1817250502F4
:102A13000E1BDE1AE41AF01AEA1AEE19121A321B06
:102A23001E1A241A020402010101010902DA18E044
:102A330018D4181019000000000000E618F8180058
:102A4300BE040A150004007F00E8030C0028000000
:102A5300000000090308100C0A0308090004000120
:102A6300FF1E1E0C05040F08C082C0838A828B835D
:102A7300E0D2E7F0121ED4023B1FC082C08379006C
:102A8300122F37125E88C082C083900334124C0E1B
:102A9300D083D082C3E09CA3E09D500C12655CFA06
:102AA300A3E0122AAE600109023B1FFBEA75F00B9B
:102AB300A4FAA8F075F00BEBA428FB900336E02AE8
:102AC300F8A3E03B8882F583E0540F2274F7120ADF
:102AD300638908122F37122FDDACF075F00BE9A4D0
:102AE3002CF9900336E028FEA3E039FF7401650852
:102AF30060067402650870208A828B83122FC912C4
:102B03003EFF74026508701B122E8812301070137A
:102B13008E828F83E4F0800BEA2403FCEB122FAB4D
:102B2300122FB7EEFAEFFB122654023E5C74F41236
:102B33000A63126E8379008E828F83E06076890A3E
:102B4300890B8065E50A75F00BA4FAA8F075F00B04
:102B5300E50B122ABB7046E50A75F00BA4F8AAF040
:102B630075F00BE50B122FEF8E828F83E0850882C1
:102B73008509831230D1850882850983A3123EFF1C
:102B8300EE2403FCEF122FB4123CDD125902AA0803
:102B9300AB091226547901900334125317E50A2422
:102BA30001F50AE50B3400F50B122E90E50A9AE5C0
:102BB3000B9B40900240A974F5120A63EAFEEBFFF7
:102BC300740B1212E5123CE2750A01EC4D602BEC1A
:102BD300126E9FED125E88123EF779011225C4E54D
:102BE300084509606F850882850983A3126E8D7974
:102BF30002AA08AB091225C4805AE5084509602BCF
:102C0300125E8C124556123CDE122FFA700CEEFA4D
:102C1300EFFB1225ACE9F50A80CBEE2403FA122F61
:102C23003270317903EEFAEFFB80CA8E828F83A371
:102C3300E064FE7003A3E0F4700BEE24030A0A0AB7
:102C4300122F32700CEEFAEFFB1225ACE9F50A8075
:102C530003750A00A90A7F03020D1874F7120A63A9
:102C6300900334123E6CEA4B602FEA75F00BA4FA22
:102C7300A8F075F00BEBA428FBEAFEEBFF121D0C8A
:102C8300900336123E6C90033612515C6012EEFCD8
:102C9300EFFD7900121C768007900336E4F0A3F071
:102CA300023E5C9003341248C6C3EE98EF9922C0EB
:102CB30082C083EC4D600512241A80097C087D00D4
:102CC3007900121C76023B1F74F6120A637900EA3C
:102CD3004B6018780088081261CFEB1265586004C6
:102CE3007901780808E8C3940840EA023F0874F7BA
:102CF300120A6374F31210AEECFEEDFF85188285A1
:102D03001983E4F0041212E5EAF0A3EB1256887477
:102D1300031212E5AC82AD83EEFAEFFB12259AEEB5
:102D2300FAEFFB122594023E5774F7120A6374F309
:102D33001210AEECFEEDFF851882851983E4F0EAEC
:102D4300FCEBFD74031212E51230CA74011212E592
:102D5300123EF38E828F83123EFF74FE68700374FB
:102D6300FF696004790180027900023E5774F7120B
:102D73000A63EAFEEBFF122DCE7014122DD98E8258
:102D83008F83E0F4F88A828B83E058F0122654A9EB
:102D930008023E5C74F7120A63EAFEEBFF75080053
:102DA3008E828F83E06022122DCE701D122DD98A60
:102DB300828B83E08F838E82F8E058700CE0F88A70
:102DC300828B83E048F012265480C41225E2E9F591
:102DD300087401650822126E98122FE1122F23FA4C
:102DE300A3E039FB2274F4120A638A088B097C007E
:102DF3007D00122E88122FB7122F48126E8A790087
:102E0300850882850983A3E064FE7003A3E0F46070
:102E1300717E007F008062EEFAEF122AAE6057EEF9
:102E2300FAEFFBEA75F00BA4FAA8F075F00BEBA42C
:102E330028FB900336E02AF50AA3E03BF50B85084F
:102E430082850983A31255D6850A82850B83A3E065
:102E53006A7003A3E06B701EE50A2403FAE50B1204
:102E63002F33700AE50A2403FCE50B122FB4122F4B
:102E73003C7901125E9E123827122E90EE9AEF9B38
:102E830040950240A9EA24030A0A0AEB229003347C
:102E9300125A75C32274F3120A638A088B098A8251
:102EA3008B83A3126E8D122F37126E8A750C00124C
:102EB3002E88122F3370547E007F008049122F1505
:102EC300FAA3E0398A82F583E0540F6036122F1596
:102ED300F50AA3E039F50BE50A2403FCE50B122FF1
:102EE300BE3400FB122414E964017017850A82853D
:102EF3000B83A3125B36A3123EFF122F3C750C010A
:102F0300125E9E123827122CA640B2A90C7F05022E
:102F13000D18EEF8EFF9E875F00BA4F8122F232241
:102F2300AAF075F00BE9A42AF9900336E02822EF02
:102F330012300A22126E9EEB22122F48125E99EE75
:102F4300F0A3EFF022E508126E9FE5092274F51253
:102F53000A63EAFEEBFF8E828F83A3126E8D7C00E1
:102F63007D00EE24030A0A0AEF122FB7EEFAEFFBF5
:102F73001225E2E9F50A7401650A7029126E9812A6
:102F83002FDDAAF075F00BE9122FEF850882F58388
:102F9300122FC9122FFA700DE5082403FCE509125C
:102FA3002FAB122FB7022C573400FDEE2403FAEF98
:102FB30022122FBE3400FB12259A223400FDE508AD
:102FC3002403FAE50922A3122FCE22122FD222E0E4
:102FD300F8A3E0F98E828F83A322122FE12234001B
:102FE300F5831248CAE875F00BA4F822122F29F5CD
:102FF30008A3E039F50922E8F0A3E9F0E508240382
:10300300FAE50912300A221230106401223400FB5F
:10301300122594E92274F3120A6374E61210AE12B5
:103023006E83750C01750800750900750A00750B30
:1030330000851882851983E4F0EE2403FCEF340045
:10304300FD74031212E51230CAE964017023740B94
:103053001212E5123EF774011212E51255DA7003EB
:10306300A3E0696051851882851983858208858369
:1030730009740D1212E5E41230D1740E1212E51226
:103083003EFF740D1212E5AA82AB83121C4CE96455
:1030930001700B740D1212E585820A85830B780A81
:1030A30012101DAC08AD09EEFAEFFB1225A674024F
:1030B300121030E9F50CEEFAEFFB1224F2A90C74AE
:1030C3001A121030022F1012339D1212F822123EE0
:1030D300671248C622C082C0837800790080031239
:1030E30031C8122E90E89AE99B5029E8FAE9FBEAE5
:1030F30075F00BA4FAACF075F00BEBA42CFB90036A
:1031030036E02AFCA3E03B8C82F583E0540F70CFBA
:10311300790080027901023B1FC082C083902A4656
:1031230012491CEC75F012A4FCA8F075F012EDA482
:1031330028FD79FF7AFA7B0A121C76023B1F74F78B
:10314300120A63E9FEEAFF7A007B007800790080C7
:1031530028E8FCE9FDEC75F012A4FC85F00875F095
:1031630012EDA425081235DDC39E400AE0FCEFC32F
:103173009C40031236FC1231C81235D140D3023EB3
:103183005CC082C0837800790080031231C8123199
:10319300BC501F1235E1F470F2E875F012A4F8AADE
:1031A300F075F012E9A42AF974FA28FA740A39FBC3
:1031B30080047A007B00023B1F902A46123692C39A
:1031C300E89AE99B22E8240108E93400F92274F023
:1031D300120A6374F31210AE8A0A8B0B8C0C8D0DDA
:1031E3008908EC450D6016AA0CAB0D1213468A0E26
:1031F3008B0FAE0EAF0FEE4F600302328F12131C14
:103203008A0E8B0FA80EA90FE8FEE9FFE849607C40
:10321300902A541232F16022740365086006740424
:10322300650870167A047903121316902A54123320
:103233000840077A007B000232EE902A521232F1E4
:10324300601B74016508600674026508700F7A02DA
:103253007901121316902A5212330850D685188218
:103263008519837401F01212E5125902AC0CAD0DED
:1032730074031212E5123396740B1212E5123CEA30
:103283001242DFE41258EA12180E8004EE4F604A2D
:10329300780074FF2508C39404500278048E828F4B
:1032A300831259028E828F83A3A3A3A3E508F0E8B8
:1032B3008E828F83A3A3A3A3A312590A12080B120E
:1032C30036A98E828F83A3A3A3A3A3A3A3F012364D
:1032D300A01212BA125E821212AE1232F64005909A
:1032E3001056E4F01216E8EEFAEFFB0248D0125A39
:1032F3002449227A047900121316902A4612653E55
:10330300EA98EB992212332175832A758246E49356
:10331300C398F8A3E49399F9C3EA98EB9922E49349
:10332300F8740193F92274F2120A6374F31210AE63
:103333008A088B09ECFEEDFF750A00EEFAEFFB122B
:1033430013468A0C8B0DA80CA90DE849603E8882B0
:103353008983E065087004A3E06509602F8882898A
:1033630083A3A3A3A3E0C394055021125D30851862
:10337300828519837401F01212E5125D34EEFCEFBD
:10338300FD74031212E5123396750A01A90A740D2E
:103393000253CE12339D12130422AA82AB83122549
:1033A3009A851882851983AA82AB832274F6120A3E
:1033B300631233EB600FA3A3A3A3E014C3940450DD
:1033C30004790180027900023F0874F6120A63123D
:1033D30033EB600FA3A3A3A3E014C39402500479B7
:1033E3000180027900023F081213408A828B83E531
:1033F3008245832274F6120A631233EB600BA3A394
:10340300A3A3E07004790180027900023F08C0821F
:10341300C083EAFCEBFD7A007B00023B1CC082C048
:10342300837C007D00023B1C74F4120A6374F31264
:1034330010AEEAFEEBFF8C0A8D0BC3EC94F8ED940F
:10344300FF4007EE4F70030234E47508007509006E
:10345300802E8518828519837401F012384F121259
:10346300E512385D601374031212E5AC82AD83EE8E
:10347300FAEFFB122414E97049E508240112367DA2
:10348300902A46E4125A2CE50898E509995052E52A
:103493000875F012A4F8AAF075F012E509A42AF948
:1034A30012657160D4EE4F70A974FF650A700474DD
:1034B300FF650B60C412383F650A7004A3E0650B17
:1034C30070B7E50875F012A4F508A8F075F012E5D9
:1034D30009A428F50974FA2508FA740A3509FB804A
:1034E300047A007B000240A474F4120A6374F3129A
:1034F30010AE7508001213468A0A8B0BAE0AAF0B87
:10350300EE4F602A8518828519837401123E61F893
:10351300A3E0F9740B1212E5123F821224F87C1215
:103523007D0079FFEEFAEFFB121C7675080112326B
:10353300F650099010567401F01216E8A9080240DB
:10354300A474F7120A63E9FE74FE6A700374FF6BD6
:1035530078007900700580521231C81235D1504A73
:10356300E8FCE9FDEC75F012A4FCAFF075F012ED88
:10357300A42F1235DDF460E0E8FCE9FDEC75F012F0
:10358300A4FC75F012EDA42FFD74FA2CF582740AD5
:103593003DF583E06A7003A3E06B70BC80091235CC
:1035A300E114C3940440171231C81231BC5018EE11
:1035B30070EC1235E164016005E0640370E91238D0
:1035C30030FAA3E0FB80047AFE7BFF023E5C902A84
:1035D30046124920C3E89CE99D2212373122E8FABA
:1035E300E9FBEA75F012A4FAACF075F012EBA42C27
:1035F300FB74FE2AF582740A3BF583E0221213580A
:10360300023B1FC082C083790180F274F0120A6307
:103613008A0A8B0B7A0479011213168A0C8B0DEA32
:10362300450D603EEAC333FAEB33FB121D0C8A08E7
:103633008B09AE08AF09EE4F60237AFE7BFF1213AE
:103643005E74FE6A700374FF6B601B8508828509D4
:1036530083123E6CE508240212367D80E1750C006E
:1036630080047E007F00850A82850B83E50CF0EEE3
:10367300FAEFFB0248D5E5082407F508E50934000D
:10368300F50922902A46124920C3EA9CEB9D22E4C5
:1036930093FA740193FB22121C6A740322125E9341
:1036A300E4F09080A622E88E828F83A3A3A3A3A332
:1036B300A3A3A31236CB74011236CBA3F0EE2410CE
:1036C300125E96E4F0A3F0221242EBA3A3A322C05E
:1036D30082C0837A007B008004191236FC1236867E
:1036E300501012371BC3940550F0E970EC123705E4
:1036F30080047A007B00023B1FEA24010AEB3400BA
:10370300FB22EA75F012A4FA75F012EBA428FB74FD
:10371300FA2AFA740A3BFB22EAFCEBFDEC75F01281
:10372300A4FCA8F075F012EDA42812373122FD7421
:10373300FE2CF582740A3DF583E02274F7120A63C6
:1037430074F31210AE7E007F000237E3E50875F0D4
:1037530017A4F8A9F01267D2FAA3E0FBEEF8EFF989
:10376300E875F012A4F8ACF075F012E9A42C123845
:103773003E6A7003A3E06B603FE50875F017A4F899
:10378300AAF0EA1267D1F8A3E0F974011212E5E096
:10379300687003A3E0696020E50875F017A4F8EAF0
:1037A300F9747628FC740C39FD74031212E5AA82AD
:1037B300AB83122414E96014E50875F017A4F8A983
:1037C300F0747428FA740C39FB12181A0508902A3D
:1037D30059E493F8E508C398500302374F1238278A
:1037E300902A46126B185039EEF8EFF9123830F47C
:1037F3007003A3E0F460E68518828519837401F0F1
:10380300EEF8EFF9E875F012A4F875F012E9A42ABE
:10381300F912384F1212E512385D60C17508008045
:10382300AD023E57EE24010EEF3400FF22E875F09F
:1038330012A4F8AAF075F012E9A42AF91238432267
:1038430074FA28F582740A39F583E02274FC28F5AA
:1038530082740A391248C4740B22E8F0A3E9123FB8
:103863008A1212FEE922C082C08390034174BCF025
:10387300A37415F0023B1F74F7120A63EAFEEBFF11
:10388300900377E06408601BE0640460168E828F07
:1038930083E0540364017048123CDD1243D5E064B5
:1038A30006703D8E828F83A3A3E064FE7003A3E0C2
:1038B300F4602D8E828F83A3A3123EF3900368E0FE
:1038C300687003A3E069700BEE2415F582EF1265AF
:1038D300586008121676E9F508800812167C80F6FF
:1038E3007508C2EEFAEFFB121D12022D9274F41248
:1038F3000A638A088B098A828B83E0F8A3E0FAE8DB
:103903002AFAE43400FB121D0C8A0A8B0BAE0AAFB1
:103913000BEE4F6063850882850983E0FC7D0079A7
:1039230000121C768E828F83A3A3126E8D1216B89B
:103933008E828F83A3A3A3A3123E6C85088285097D
:1039430083E0F8EE28F8EF3400123EFB8508828509
:103953000983A3E0C0E0EE240D125E85D0E0F012EF
:1039630016CAEE240E125E85E9125537E0C0E0EE6A
:103973002411125E85D0E0F0EEFAEFFB0240A97449
:10398300F4120A6374EB1210AE8A088B098C0A8D49
:103993000BE9FE900377E064046005E064087004BB
:1039A30079C2802EA37808121256EE90037E123B42
:1039B3005D12125674051212E5E9F074041212E551
:1039C3007401F074071212E5E4F0900377740212A5
:1039D3003ABA74150240A674F6120A6374EB121015
:1039E300AEEAFEEBFF1251596003023A7E7A077B7F
:1039F30000121D0C900339123E6C12515960788EDF
:103A0300828F831212BA90033A1243D81212AE1263
:103A13006D51C0E0123A8AD0E0F0EE2405FAEF349B
:103A230000FB8A088B098A82F583E0C0E0123A859D
:103A3300D0E01240A0E0C0E0123A85A3D0E0123EED
:103A4300E01212BA8518828519831212AE88828910
:103A530083E0C0E074051212E5D0E0F085088285AA
:103A63000983E0C0E074041212E5D0E0F074071299
:103A730012E5123AB98006791080027901741502B1
:103A83003F05123A8AA322900339E0FAA3E0F583B3
:103A93008A82A3A3A3A322C082C083125159600DBB
:103AA300900339125A63900339E4F0A3F01215E638
:103AB3001217BA023B1FE4123F8A12244A22C08221
:103AC300C083900338E07003121F9A1213A0804C36
:103AD300C082C083900338E09010557004E4F080F6
:103AE3002D7401F0900338E0F460237C41E0C3942B
:103AF300415002E0FCECF8E0C398F0EC75F0E8A468
:103B0300CCA8F075F003A428FD7A801249287A55D1
:103B13007B107941122432800312134CD083D0825C
:103B2300020FE274F4120A6374EB1210AE8A088B6C
:103B3300098C0A8D0B9003777401123B5D121256A8
:103B430074051212E5E9F074041212E57403F074BB
:103B5300071212E5123AB90239D5123EEB78082260
:103B630074F7120A637C011213B2023E5C74F21200
:103B73000A6374FC1210AEE9851882851983F0EA92
:103B8300FEEBFF8C0A900375124C0E1215DA8A08AD
:103B93008B09EA4509700579CA023CD88A828B836E
:103BA300A3A3A3A3A3A3A3E064FE7003A3E0F47001
:103BB3000579C3023CD89003751255D61218208597
:103BC3000882850983A3A3A3A3A3A3A3A3A3A3E019
:103BD30004900388123E3B74021212E57402F0143F
:103BE3001212E5AA82AB831217248A0C8B0DAE0C3A
:103BF300AF0DEE4F7003023CCF123CDD12454A7409
:103C030006F0A3A882A983900362125AA01248A3C4
:103C1300F0EE2413125E8574011258E27440F0A38F
:103C2300E4125530A3A3123CEA123EFFEE24111214
:103C33005E85E50AF0EEFAEFFB12137CE9FE600302
:103C4300023CD19003777409F0123679AA08FB7904
:103C53004B122432850882850983123E2D123EFFC2
:103C630090036AE0F8851882851983E068600CE0A8
:103C730090036A123F8679E1122432901096123E25
:103C8300F3901098E0687003A3E069601A90033B17
:103C9300123EFF9010981255D61216E29010981209
:103CA3004C0E7A011249287A007B049003C2E0F992
:103CB300121DCC901098123CE2740278081211DDA8
:103CC300AC08AD09FA7B0412492A80027E109005E4
:103CD30025E4F0EEF974040253CEEE125E9422E072
:103CE300F508A3E0F50922123CEE22122FD2A322FB
:103CF30074F5120A6374E21210AE85188285198373
:103D0300ECF0A3EDF0EAFEEBFF890874291212E54B
:103D1300E0F509742C1212E5E0F50A900377E064EC
:103D2300046005E06408700579C2023E25742A1216
:103D330012E5E064FE7003A3E0F4700579C3023E6C
:103D4300259003777403123F867950122432742A24
:103D53001212E5AA82AB83794B122432851882852D
:103D63001983123E34123EFFE50890036AF0742A69
:103D73001212E5123E2D123EFFE509900362123E38
:103D83003B74CE55094480C0E074121212E5D0E0B2
:103D9300F07401250A900388F0740F1212E574027F
:103DA300F0742A1212E5123EF374071212E5E8F0DA
:103DB300A3E9123E7274101212E5123EFF7405124B
:103DC30012E5E508F0741B1212E5E4F090037D742C
:103DD3000FF07A7D7B03795412243290037C740FA5
:103DE300F07A7C7B03794712243290037CE0C394FE
:103DF3000F502374051212E5E0C0E074021212E5BD
:103E0300D0E0F074041212E57401F0041212E5AA72
:103E130082AB8312245674051212E5AA82AB831275
:103E23002438741E121030022C591248C690036BAA
:103E3300221248C690037522F0EEFCEFFD7A897BCF
:103E43000312241A2274F7120A63EB90037FF01211
:103E530015C88005740D1210307F01020D18123E33
:103E630067A3E022123EE0A322EAF0A3EBF02212C2
:103E73003EE6F8A3E0F92274F7120A6374F812100D
:103E8300AEEAFEEBFF7900900377E06408704485A7
:103E9300188285198374FDF0A374FFF01216B274AF
:103EA300021212E5123E6C74051212E5E4123E672B
:103EB300E0C0E074041212E5D0E0123EDBC0E0740F
:103EC300061212E5D0E0F074071212E5E4123F8601
:103ED3001217067408023E59123EE0E022F08E8269
:103EE3008F8322123EEBE022F0851882851983220C
:103EF3001248C622E0F8A3E0F9125E93E8F0A3E9C2
:103F0300F0221210307F02020D18C082C08390038A
:103F130049746CF0A37414F09003EF7460F0A3740D
:103F230017F090034D74A2F0A37414F090034F7430
:103F33006CF0A37414F090035174A8F0A37414F0FC
:103F4300023B1F74F4120A6374F91210AE8A088BD1
:103F5300098C0A8D0B8518828519837808121256ED
:103F630074041212E5E9F074051212E5E4F0740624
:103F73001212E5E4123F8612138E74070240A6E87C
:103F8300F0A3E9123F8A22123EEBAA82AB8322748A
:103F9300F4120A638A088B098A828B83125EA1EE6C
:103FA3004F700302409E90031212515C60158A8287
:103FB3008B83A3A3E0F9EEFAEFFB9003131243D82C
:103FC3001226658E828F83A3A3A3A3A3A3A3A3A374
:103FD300E0640270748E828F83A3A3A3A3A3A3E0E0
:103FE30054027003024070850882850983A3A3E00D
:103FF30064E960798E828F83A3A3A3A3A3A3A3A35E
:10400300A3A3E070149010ABE0048E828F83A3A36C
:10401300A3A3A3A3A3A3A3A3F08E828F83A3A3A38A
:10402300A3A3A3A3A3A3A3E0141240A0A3A3A374D5
:1040330004F09010AC1258DCE8F0A3E91269B58BD8
:104043000BEA450B70031263938E828F83A3A3A3A2
:10405300A3A3A3A3A3A3E0640260128E828F83A30E
:10406300A3A3A3A3A3A3A3A3E06406702E8E828FAE
:1040730083A3A3A3A3A3A3E0A2E0501F8508828583
:104083000983A3A3E0F9EEFAEFFB12254C8E828F8E
:1040930083A3A3A3A3A3A3E054FEF080091242E7E2
:1040A30022740D1210307F04020D1874EC120A638F
:1040B30074DD1210AEEAFEEBFF8C088D0974371223
:1040C30012E5780C121283750A0074051212E5AC1E
:1040D30082AD831224CE74121212E5E070087415B7
:1040E3001212E5E0602074051212E5E0A2E6501E0C
:1040F3008E828F83A3A3A3A3A3A3A3A3A31255D6A3
:1041030012173CE9600879031224020242CD7405B8
:104113001212E5E0540C64047005750B01800375FD
:104123000B00E0A2E55035750A01E50BA2E0402C37
:104133001216B88A108B11A810A911123CDDE06881
:104143007003A3E069601574051212E5126E9412F0
:1041530055D2122558E96004790480AC7405121213
:10416300E5E0A2E6502274061212E5E0540370184B
:1041730074051212E5E0540C640C600CE0540C64FA
:10418300086005751001800375100074051212E5AF
:10419300E05403F8740268700C126E941255D21234
:1041A30024BC0242CD740168703AE510A2E05003CA
:1041B3001242D574051212E5A882A9837403121260
:1041C300E5E8F0A3E91248BA8518828519831242FB
:1041D300DFE0C0E074021212E5D0E0123F8612263F
:1041E3003C0242CDE860030242CD90035FE06401EC
:1041F30070108E828F83A3A3A3A3A3A3E0700302F3
:10420300415B74221212E574021248BA741A121234
:10421300E5123EFFE510A2E0500874051212E51204
:1042230042D5E50BA2E0506AEE240FF582EF12654A
:1042330058C0E074171212E5D0E0F0900314125145
:104243005C70030242CD1216B88A128B13A812A90E
:1042530013741A1212E5E0687003A3E069706B78B7
:104263000C121015780A121021780812101DA910CB
:10427300740C1212E5AC82AD8374211212E5AA828A
:10428300AB839003141243D51226657407121030C2
:104293008038780C121015780A1210217808121041
:1042A3001D900375120E18EE2412F582EF1262862A
:1042B30074231212E5AC82AD83740E1212E5AA8246
:1042C300AB8312254074091210307423121030028C
:1042D3006980126E94125A711224C822E8F0A3E97D
:1042E3001242E7221242EB22F08E828F83A3A3A312
:1042F300A3A3A32274F7120A63121E8C023E5C74FA
:10430300F7120A63121E9E023E5CC082C083121E15
:1043130098023B1F74F7120A63121EA4023E5C74D8
:10432300F7120A6374091212E5E0F508780812100F
:1043330021121EB07401023E59C082C083121EBCFA
:10434300023B1FC082C083121EC2023B1F74F712BE
:104353000A63121EC8023E5C74F7120A63EAFEEB9C
:10436300FF890874016508701479001214E4902A17
:1043730064E493FC7900EEFAEFFB12145A023E5CFC
:1043830074F4120A6374F91210AEE9FE8A088B09F9
:104393008C0A8D0B74131212E51255D69005711207
:1043A300515C6027EE851882851983F0740112121F
:1043B300E57808121256EAF8EBF974051212E512C1
:1043C3003F829005711243D5122665023F7DFB9013
:1043D300034BE0F8A3E0F58388822274F7120A63A3
:1043E300901058E0F97E00800B126544540D64016F
:1043F3007001190E1245D85003E970ED023E5C744A
:10440300F7120A63901059E0F97E00800B1265449D
:10441300548D64817001190E1245D85003E970ED73
:10442300023E5C74F2120A63890BE975F006A42458
:104433000CF508E5F01236818A0CE508250CFAE53F
:10444300093400FB121D0C8A0C8B0DAE0CAF0DEE64
:104453004F6027AC08AD097900121C76123CDDE5EC
:104463000BF0EE2508F8EF3509F98E828F83A3A3AD
:10447300A3A3A3A3A3A3A3123EFFEEFAEFFB02534E
:10448300D174F6120A63EAFEEBFF1214369010574A
:10449300E0F8E9C39840099003451255D612143C3D
:1044A300EE2402F8EF125BE6900347125AA0900342
:1044B30047E004F0EEFAEFFB121442850882850907
:1044C30083E002609CC082C0837900900345800131
:1044D300091255D68A828B83E582458370F2023BAB
:1044E3001F74F7120A63EAFEEBFFEE4F6056900368
:1044F3004512515C604E888289837A007B00EE65A9
:10450300827003EF6583600FAA82AB8312454AE58D
:10451300824583602F80E7900345124556687002F9
:10452300EF698E828F837008123EF39003458003F8
:10453300126992123EFFEEFAEFFB12260CEEFAEF2F
:10454300FB121D12023E5C12454E221248CA88829B
:104553008983221248C6EE22C082C083900345801D
:10456300048882898312515C600B88828983124C90
:104573000EEC4D70EC8A828B83E4F0A3F0E8496083
:1045830006888289838003900345123E6C023B1F99
:1045930074F7120A6390034580048A828B83124561
:1045A300D34B60257E0080010E1245D850ECEE758A
:1045B300F006A4FCADF0EA2CFCEB3DFDEC2410F579
:1045C30082ED12462870E180047A007B00023E5C93
:1045D300125A75EA22124631EEC3982274F7120A70
:1045E300637D0080010D12462DEDC3985034ED75A7
:1045F300F006A4FEA8F0E8FFEA2EFEEB3FFFEE2450
:1046030010F582EF12462870DCED75F006A4FEE883
:10461300FFEA2EFAEB3FFBEA2411F582EB12655811
:104623004CF0023E5C126564692212463122126E1E
:104633009EEB3400F583E0F82274F6120A63121538
:104643005C7A007B008025EAF8EBF9E875F006A4B4
:10465300F8ACF075F006E9A42C125A4A126D5FA368
:10466300E4125B40F0A3126D65126EDC902A4E12C9
:10467300330040D37A007B00801C8A088B097403C3
:1046830078081211DD1254FEA374FEF0A30412592C
:1046930020A3E4126EDC902A581246DB40DC7A0039
:1046A3007B00801D8A088B09740378081211DD745E
:1046B3009C1261D0740F126A1774FEF0A304126E79
:1046C300DC902A5E1246DB40DB902A62E49390037F
:1046D30053F01246E5023F08E493F8C3EA98EB94DB
:1046E30000227CE87D037A107B009003C2E0F9127C
:1046F3001DC62274F0120A6374F51210AE8A088B79
:1047030009890A8C0BE9A2E050147508FC7509FFAE
:10471300A2E15005D2E40247B8D2E30247B81253EC
:10472300BD7003A3E06970057900024885AC0A797E
:1047330002AA08AB09121538E960EDE50AF50C7811
:104743000C12102179027CFE7DFFAA08AB091251DD
:1047530038121030E96003024883E50AC2E5F50A1E
:104763009003B5E07051E50AA2E6404B74031212C0
:10477300E5AC82AD83AA08AB09122510E9703212A9
:104783004A598A0C8B0DA80CA90DE8FEE9FFE849EC
:104793006025EE24020A0AEF123010601AEE24029A
:1047A300FCEF3400FD74031212E5AA82AB831224DA
:1047B3001AE50AD2E5F50A900348E0F50C90036880
:1047C300E0F50EA3E0F50F780E12101D7D017C00BD
:1047D300900348E0F9AA0EAB0F1214F07402121002
:1047E30030E9F8900348E004F0E86003024883E509
:1047F3000AA2E55004740E80027406C0E07401122C
:1048030012E5D0E0125EB28A0E8B0FAE0EAF0FEE42
:104813004F60691248A31248BA888289837401F0F1
:104823007478550AA3126EA4E50C126EA4A3E508CE
:10483300F0E509124892E4F0E50AA2E5500F74038B
:104843001212E5AC82AD83E824061248898E828F6A
:1048530083A3A374FDF0A374FFF0E50B6015902A06
:1048630065E493F8E50BC3985009EE2413125E85B3
:10487300E50BF0EEFAEFFB12137C80067910800251
:1048830079C7740B8049FAE93400FB12241A228891
:10489300828983A3A3A3A312489E22125C19A32295
:1048A300EE2417125E967401F01216B2EE241A1259
:1048B3005E96EAF0A3EB22F0126E9834001248C41D
:1048C30022F5831248CA22E0F8A3E0F922740D12FC
:1048D30010307F08020D1874F6120A637A007B10F9
:1048E3001263A060089003D47401F080299006102D
:1048F300E064019010A97006E0FC79018004E0FCFB
:1049030079037A007B0012145A902A4C12491C7ABC
:10491300007B1012492A023F0812492022E493FC2B
:10492300740193FD227B009003C2E0F9121DC022A3
:1049330074EC120A638A088B098C0C8D0D890E7432
:10494300141212E512531774161212E5E0F510A3B0
:10495300E0F51112173CE960077AFF7BFF024A5624
:104963009010A8E064026003024A497900AA08ABE8
:104973000912153EA90E1215328A128B13AE12AF0D
:1049830013EE4F7003024A318E828F83A3A3A3A336
:10499300A3E064018E828F83A3A370691255D68E20
:1049A300828F83A3A3A3A3A3A3E054186043902AF5
:1049B30063E4938E828F83A3A3A3A3F0EA650C70B1
:1049C30003EB650D6014EA650A7003EB650B600A7F
:1049D300EA65107003EB6511701F781012101DAC9F
:1049E3000AAD0BAA0CAB0D121838740212103080EA
:1049F3000890036712638AA3F074FE6A700374FF5E
:104A03006B601D804EA3A3A3E0640360298E828F95
:104A130083A3A3A3A3A3E0640470057AFE02495E03
:104A23008E828F83A3A3A3A3A3E0640270089003E1
:104A3300B4E064027010124A598B0BEA450B60060E
:104A4300AA08AB09800DAA08AB099003491243D504
:104A530012266502698090037512513E1217FC22DB
:104A630074F7120A63EAFEEBFF12132EE9700AEEE3
:104A7300FAEFFB12133AE96006EEFAEFFB80047AD1
:104A8300FE7BFF023E5C74F0120A638A0A8B0B8C76
:104A93000E8D0F890975080012173CE97900600330
:104AA300024C00AA0AAB0B12153EA9091215328A51
:104AB3000C8B0DAE0CAF0DEE4F60198E828F83A35E
:104AC300A3A3A3A3E0640270559003B4E06402704F
:104AD30003024BFEAA0AAB0B90034F1243D51226D7
:104AE300651213408A0C8B0DA80CA90DE8497003BD
:104AF300024BFE88828983A3A3A3A3A3E0A2E04081
:104B030003024BFE750C01A2E150687901AC0AADBA
:104B13000BAA0EAB0F12148AE97064024BFE8E824D
:104B23008F83A3A3A3A3A3E064037005750C028082
:104B3300528E828F83A3A3A3A3A3E0640160030225
:104B43004BFE900375124C0E8E828F83124F638A35
:104B53000C8B0DA80CA90DE84960D1902A5CE49355
:104B6300FA88828983E0C39A50C2A3E06003024BB0
:104B7300FE80B988828983A3A3A3A3A3D2E1F0EE25
:104B83004F603A8E828F83A3A3A3A3A3A3E05418F9
:104B9300602B7508018E828F83A3A3120E18750CE8
:104BA300FE750DFF780C12101D7900AC0AAD0BAA2F
:104BB3000EAB0F1215507404121030803E90036830
:104BC300E0650E7004A3E0650F7014902A64E4930B
:104BD300FCA909AA0AAB0B12145A750801801CA977
:104BE3000CAC0AAD0BAA0EAB0F12148AE9700C754C
:104BF3000801A909AA0AAB0B1214E4A9080248D5B3
:104C0300E50C2415F582E50D125E991258F622740F
:104C1300EA120A6374F01210AE8A0C8B0D8C088DA5
:104C23000974261212E5E0F514A3E0F515751206D2
:104C33009003F512515C6023900375124C0EAA0881
:104C4300AB091218268A108B11EA4511600D8A826E
:104C53008B83A3E070057900024F4BE50C241DF50F
:104C63000EE50D3400F50F850E82125148F51388B9
:104C7300828983A3A3A3E0FA88828983A3A3A3A33E
:104C8300E0F9EA2400FEE439FFAA08AB091214EAAA
:104C9300850E82850F83124F86E029F50BE50AA264
:104CA300E5500375120E7487550A70177418550A68
:104CB3006418600FE50C2417F582E50D126558653D
:104CC3001260077901122402808C530A78C3EE9490
:104CD300F8EF94FF501D7900EEFAEFFB124F556089
:104CE3001288828983A3A3A3A3A3A3E05418600318
:104CF300024C59780812101D7D00124F79121030A2
:104D0300E9F87403687003024C59E86003024DC468
:104D13007418550A7003024E79E50AD2E0F50AA227
:104D2300E45004D2E1F50AA90A1255CF124F556097
:104D33005388828983A3A3A3A3A3A3E05418604445
:104D430088828983A3A3A3A3A3E064017036E5103B
:104D530045116030900375124C0E88828983124F7F
:104D6300638A0E8B0FA80EA90FE849601788828902
:104D730083A3E0600F851082851183A31260A7507F
:104D830003024C59E50AF50E780E121021124F6CEE
:104D9300121030E9702B7C007D0085148285158309
:104DA30074FFF0A3F0850C82850D83A3A3A3A3A3B3
:104DB300A3A3A3E06003124C03A90B1255CF121E49
:104DC300B6851482851583E0F47003A3E0F460399B
:104DD3009003B4E064027003024C59125308E0FAE2
:104DE300A3E01243D1122665EA65087003EB650957
:104DF3006003024C59EEFAEF1243D1122665851473
:104E030082851583EAF0A3EBF0780812101D7D016B
:104E1300124F79121030A90AEEFAEFFB12153E8AEF
:104E2300088B09A808A909900368E0687003A3E048
:104E3300696003024F3CEEFAEFFB1213408A088BC2
:104E430009A808A909E849606E88828983A3A3A3F6
:104E5300A3E06401600D88828983A3A3A3A3E06414
:104E6300027054851882851983AC82AD83EEFAEF04
:104E7300FB1225108055900361E0600FE50AF50EE3
:104E8300780E121021124F6C121030E50AF50E78CD
:104E93000E12102179027CFE7DFFEEFAEFFB125118
:104EA30038121030E96003024DC4851482851583DE
:104EB30074FFF0A3024E0B1216B2EAFCEBFD851849
:104EC30082851983AA82AB8312241A850C82850DED
:104ED30083A3A3A3A3A3A3A3A3E06401700F124C12
:104EE3000374081212E5AA82AB8312241A12511218
:104EF300125D1E4430F50878081210217401121255
:104F0300E5858208858309780812101D740B121237
:104F1300E5858208858309780812101DE513F508D5
:104F230078081210217900EEFCEFFD1255CF121410
:104F3300847406121030024C59125112125E8812F8
:104F43004F86E50BF01216CA74101210307F0E0252
:104F53000D181215328A0E8B0FA80EA90FE84922DD
:104F6300A3A3125A75121826227901AC08AD0912AF
:104F73005A6A12513822AC0BA913125A6A1214F04E
:104F8300740222125D26A3A3A3A32274F0120A6360
:104F930074F01210AE8A0C8B0DECFAEDFB750F0852
:104FA3009003F512515C60141260A08A828B83E532
:104FB3008245836007A3E0700302510D125112343E
:104FC30000125148F50B8882898312511BE0FBECD8
:104FD3002400FEE43BFF88828983A3A312511BA311
:104FE300A3E0FBECF508E43BF50988828983A3A3DE
:104FF300A3A3A3A3A3E0F50EE50AA2E45003750F50
:1050030010A2E550067408250FF50F748F550A702A
:105013000FE50C2417F582E50D126558650F60083E
:10502300790112240202510D530A707800E50AA295
:10503300E450221251121265582408FCA3E03400F4
:10504300FD74081212E5AA82AB8312241A7808E5CC
:105053000AC2E4F50AE50AA2E550281251121265C4
:105063005828F8A3E03400F9E82408FCE93400FDEB
:10507300851882851983AA82AB8312241AE50AC292
:10508300E5F50AAC0EA90BEEFAEFFB1214F6E9F8FC
:105093007403686075900368E06E7003A3E06F604B
:1050A3005EE87054E50AF50F780F121021125129AA
:1050B300121030E97054780A12102174011212E5AB
:1050C30085820C85830D780C12101D740B1212E56A
:1050D30085820C85830D780C12101DE50BF50A787B
:1050E3000A121021A90EAC08AD09EEFAEFFB121457
:1050F3008474061210308012740468700D80B778BF
:105103000A12102112512912103074100248D2E5EC
:105113000C241DF582E50D22A3A3A3E0FC8882895C
:1051230083A3A3A3A322790112530F125E991251F1
:105133003E125138221214AE740122E0FCA3E0FDAA
:10514300AA08AB0922F58312454EA3E0F50A88822B
:105153008983A3A3E022900339125AD12274E8125F
:105163000A6374F51210AEEAFEEBFF8C088D098911
:105173001474231212E5E0F50F74241212E5E0F51E
:1051830012A3E0F51374261212E5E0F516A3E0F579
:105193001774281212E5E0F50EA90F1214FC8A10F9
:1051A3008B1174011212E57408F0E50EA2E45003AA
:1051B3007410F0E50EA2E55004E02408F08518828F
:1051C300851983AA82AB831217248A0C8B0DEA45B7
:1051D3000D70030252EFEA2417F582EB125301120A
:1051E30016B2E50C241AF582E50D125E88123E6CA8
:1051F30074031212E5AC82AD83AA10AB1112251011
:10520300E9601D1252F974031212E5A882A983E51D
:105213000C2418F582E50D125E88E8F0A3E98024DA
:10522300E50EA2E4501FE5106E7003E5116F7015D3
:105233001252F9E50C2418F582E50D125E88E51289
:10524300F0A3E513F0125308125317850A82F5836E
:105253007402F0A3E50E12531FE50FF0EE850A82E8
:10526300850B83A3A3A3F0EF850A82850B83A3A3F6
:10527300A3A312531FA3A3A3E508F0E509850A829C
:10528300850B83A3A3A3A3A3A3F0AA10AB111214AA
:10529300EAE92514850A82850B83A3A3A3A3A3A309
:1052A300A3F0750800E50EA2E45011AC12AD13E5AE
:1052B3000A2408FAE50B12488B750808E50EA2E5E7
:1052C3005014AC16AD17E50A2508F8E50B3400F9C0
:1052D300E82408124889850C82850D83A3A3E51071
:1052E300F0A3E511F0AA0CAB0D12137C740B121092
:1052F300307F10020D18E50C2416F582E50D125EC1
:10530300997401F02212530F125E9922E50C126E6A
:105313009FE50D22E0F50AA3E0F50B22F0850A8252
:10532300850B83A3A32274F2120A638A088B09EC08
:10533300FEEDFF890A79001253BD7003A3E0697083
:105343000479018073750B01900368E065087004AC
:10535300A3E06509601F750B00780B121021A90AE1
:10536300EEFCEFFDAA08AB09121778740112103096
:10537300E9F50B80417900EEFAEFFB121532EA4BA7
:10538300602B8A828B83A3A3A3A3A3A3E0541860F7
:105393001C7508FE7509FF780812101D8A828B831D
:1053A300A3A3120E18126CB412103080097901EE07
:1053B300FAEFFB121412A90B801412153E8A0C8B00
:1053C3000DA80CA90D900368E068221210307F0627
:1053D300020D1874F4120A637508E475090D7A1046
:1053E3001269BC8B0BEA450B70031246E59003531D
:1053F300E014F0700C902A62E493900353F01215BA
:105403004A7E007F00806C850882850983A3A3A35D
:10541300A3E06059F46056E5082404F582E5091217
:1054230063847049850882850983A3A3A3A3A3E0AA
:10543300640370197902850882850983124C0E85ED
:105443000882850983A3A31255D612148A8508827C
:10545300850983A3A3A3A3A3E06401601085088245
:1054630085098374FEF0A304125530E4F012382743
:10547300123679902A50126B18408C7E007F008080
:10548300391216588E088F09740378081211DD74C7
:105493005C2508FC740F3509FD7A967B14121646B9
:1054A300EA4B70DD8E088F09740378081211DD1240
:1054B30054FE126D5FE4F0123827902A58E493F8F3
:1054C300C3EE98EF9400501B8E088F09740378087D
:1054D3001211DD125506E82407F582E91263847080
:1054E300D680A17E007F00800A125511600214F05D
:1054F300123827126B1540F10240A9125506888213
:10550300898322745C2508F8740F3509F922EEF8B3
:10551300EFF9E875F006A4F8AAF075F006E9A42AF5
:10552300F974FC28F582740E39F583E0221255379D
:10553300A3A3A322F0850882850983A3A32274F77A
:10554300120A6374E11210AEECFEEDFF750800EE73
:105553004F60728A828B83E0241C1263B512515C04
:1055630060638A828B831255D6851882851983AC32
:1055730082AD83EA241BF582EB126286EA241CF5D2
:1055830082EB1255D212169A740B1212E51255DAE7
:105593007003A3E069702E74021212E5E0640170D7
:1055A30024741D1212E51243D5E064017017741DB3
:1055B3001212E51243D7A3A3E0F88E828F83E0682B
:1055C3007003750801A908741F023E5912530F3462
:1055D30000F583125A7522122FCEE0682274F4125A
:1055E3000A63E97024790090034D1243D5122665AE
:1055F3008A0A8B0BAE0AAF0B74FE6E700374FF6FD7
:10560300701A902A5FE4936013790190034D12435B
:10561300D51226658A0A8B0BAE0AAF0B1216E80267
:10562300397B74F6120A6374F31210AE121C828A69
:10563300088B09AE08AF09900368E06E7003A3E01E
:105643006F60E91216BEEA6E7002EB6F60DEEEFA6F
:10565300EFFB12173CE970D4EE4F60D085188285BA
:105663001983E4F0041212E5EEF0A3EF125688E971
:1056730070BA74FE6E700374FF6F60B0EEFAEFFBE6
:10568300740D023F05123F8A121C4C22C082C08354
:105693001216E8023B1F7F0A020D1874F2120A6306
:1056A300EAFEEBFF8C0A8D0B8908740E1212E5E0FB
:1056B300F50974FC6E700374FF6F70057900025373
:1056C300D1790012153E8A0C8B0DAE0CAF0D9003F1
:1056D30068E06E7003A3E06F7006E509A2E650DC94
:1056E300A909126BA2706179007AFE7BFF126BA28B
:1056F30070567418550970030257D57800790080E5
:10570300031231C8902A501231BF40030257D5E823
:10571300FAE9FBEA75F007A4FAACF075F007EBA41D
:105723002CFB74EA2AF582740D3BF583E054187060
:10573300D0E875F007A4F8AAF075F007E9A42AF9F0
:1057430074E428F8740D39F988828983A3A3A3A389
:10575300A3A3E0541860097418550970030256BFD7
:1057630088828983EEF0A3EFF074FE650A700474F7
:10577300FF650B60031258FC88828983A3A3A3A34C
:10578300A3A3E509F0A2E0500D88828983A3A3A314
:10579300A3A3A3D2E2F07401650888828983A3A33B
:1057A300A3A3A370387401125920E0541860289001
:1057B3002A63E49388828983A3A3A3A31258EA12DA
:1057C30018268B0DEA450D60030256BF7800790059
:1057D300803979020256C1900367E080D7E0640103
:1057E30070030256BF88828983A3A3A3A3A3A3E064
:1057F30054186007902A63E4938004900366E012D0
:105803004892E508F00256BF1231C8902A59E49332
:10581300FAC3E89AE9940040030256BF7A007B007A
:10582300804BEAFCEBFDEC75F007A4FCAEF075F0E1
:1058330007EDA42EFD74E62CF582740D3DF583125D
:105843005EA1E8FCE9FDEC75F017A4FC85F0097591
:10585300F017EDA42509FD74742CF582740C3DF545
:1058630083E06E7003A3E06F609E1236FC902A50B3
:1058730012368940AD12491CEC6A7002ED6B7088D8
:10588300E875F017A4F8AAF075F017E9A42AF974DB
:105893007428FE740C39FF7C177D007900EEFAEF53
:1058A300FB121C768E828F83125902900375125855
:1058B300DCA3A3A3A3A3A3E8F0A3E91258E2740112
:1058C300F0EE240E125E85740112590A12080BEED3
:1058D300240D125E85E8025807123CEEA3A322F0C2
:1058E300EE240F125E9622F01258F3AA0AAB0B2293
:1058F300900375E0FCA3E0FD2288828983A3A3E5DE
:105903000AF0A3E50BF022F012590F22902A5CE46F
:10591300932401F8E43400F97A027B002212489EB2
:10592300A32274ED120A638A088B09890E125A5353
:1059330040057905025A21121EFEAA08AB09125B23
:1059430025902A4E125A24650A7003E9650B7007E5
:105953007AFE7BFF125B25902A4EE4125A2CE50A4D
:1059630098E50B994003025A1F125A306012E50A58
:1059730075F006A4F875F006E50B125A7B121D129A
:10598300E50E6018E50A75F006A4F8AAF075F006AE
:10599300E50B125AA7701A7901025A21E50A75F02C
:1059A30006A4F8AAF075F006E50B125A88E4F0A3F2
:1059B300F0E50A75F006A4F8AAF075F006E50B12F7
:1059C3005A48A3125D3488828983A3AA82AB8312C7
:1059D3005A968A828B83E0603F125A30603A8E1067
:1059E3008F117512007810121019E50EC333FCE401
:1059F30033FDE50A75F006A4F50AA8F075F006E58F
:105A03000BA428F50B7400250AF582740F350B12CD
:105A130055D412369A121030790080027907026B3E
:105A2300B8123321E822902A4612653F22E50A750F
:105A3300F006A4F8AAF075F006E50B125A83F8A352
:105A4300E0F9E84922A42A125BDC88828983A32235
:105A5300ECFEEDFF902A5AE493F8E9C39822F5830C
:105A6300125A75121D1222E50C126E9FE50D3400B9
:105A7300F583E0FAA3E0FB22125A83FAA3E0FB22A8
:105A8300125A88E022A42AF9740028F582740F3987
:105A9300F58322E50EF09010AA125AA022E0888224
:105AA3008983F022125C00F50CE93400F50DE50E54
:105AB300C333FAE433FB121D0C850C82850D83EA94
:105AC300F0A3EBF0850C82850D83125AD122124884
:105AD300CAE8492274F4120A63ECFEEDFF740C1257
:105AE30012E5123EF388088909125B25AC0AAD0B57
:105AF300ECF8EDF9902A4E125B2D5021E875F00673
:105B0300A4F8AAF075F006E9125A48E08E828F8352
:105B1300125B40125B36123EFF7900800279040269
:105B230040A91214C08A0A8B0B22123692C3EC9A34
