:020000040000FA
:060000000212460207AFE8
:03002B0002107D43
:03003300020DFDBE
:03004300020F1990
:030053000206E0C2
:03006B00020DE3A0
:100083000207440101FF01010503010F10FEFFBA3E
:100093001ABA1ABA1ABA1A70196A19BA1AD72700E9
:1000A3000000009B28000000000C0000000C000171
:1000B300FFFF0B100576880001010100A905000070
:1000C300001E06E80364006400B801020200080091
:1000D30000050207051E02051E020A0A03B80B02E9
:1000E300803E0102F1FF011496511800020206300E
:1000F300313233343536373839414243444546008B
:10010300286E756C6C20706F696E74657229003F80
:100113003F3F000000807F0000803FF9021550B789
:1001230043BA510000204100E7DB2E0000A040103D
:10013300000000080000000A00000012129260464E
:10014300121265603DE9687008F618F618F618F69D
:1001530022748067F7120172090909748067F72214
:10016300121265601D1212927005191919801A1264
:100173001119701F12112EC37003E6673319191971
:1001830040071818182208080874FFF618F618F61E
:1001930018F62212112E60171212D1702192F0124A
:1001A30012DB7019501720F014080808090909E731
:1001B300F61819E7F61819E7F61819E7F6221212D6
:1001C300DB60E6E869701F0808E62480F608E43679
:1001D300F618547FB47F0CE654806007F6E418F6F3
:1001E30018F622181822E9C6CC08C6CD08C6CE08D0
:1001F300C6CFC0E0E8C0E0EAC0E0EBC0E009E9F840
:1002030009E7FA09E7FBE6F918E6F8C3EC98ED9974
:10021300EE9AEBC2E7F5F0EFC2E795F0500E600CF3
:10022300EBCFFBEACEFAE9CDF9E8CCF8EAA2E7D2C4
:10023300E7FAEB33FB13F5F0EEA2E7D2E7FEEF3379
:10024300FFC5F013A2E730E601B313C5F0C3C0E066
:10025300C0F07F00C39BFB605B9418600C401AD016
:10026300E023F9D0E0F80203418AF0E9486003D2C1
:10027300F0E4AFF0FAF9F8803BEB30E40D89F0EAF3
:100283006003D2F0E4AFF0F9CAF8EB30E30D88F085
:10029300EF6002D2F0AFF0E4CAC9F8EB5407601480
:1002A300FBC3EA13FAE913F9E813F8EF135002D288
:1002B300E0FFDBEDD0E0C0E030E739C3E49FFFF5BA
:1002C300F0EC98FC42F0ED99FD42F0EE9AFE42F01C
:1002D300D0E0F9D0E0F8E5F0607AE923F9EE20E721
:1002E30042D8028067C3EF33FFEC33FCED33FDEEFE
:1002F30033FE80EAEC28FCED39FDEE3AFED0E02334
:10030300F9D0E0F84002801BC3EE13FEED13FDECC1
:1003130013FCEF135002D2E0FF08B800067F7F748E
:10032300FF802EEF3350178CF020F00260100CBCCE
:10033300000C0DBD00080EBE000408E860DFE933C1
:10034300E813FFEE2313FE4F4D4C8008E95480FF62
:10035300E4FEFDFCEE33EF33F47004FCFD7E80D04D
:10036300E0FBD0E0FAD0E0F8D0E0CFC618CEC61854
:10037300CDC618CCC6F922121265700418181822BB
:10038300121292700D74FFF61819F61819F618194F
:10039300F622E7548066F61212DB700F1212D17048
:1003A300F014F608F608F608F680D11212D1700C94
:1003B300F608F608768008E6447F80EC1211317067
:1003C3000C12111C60BFE65480F6E480BB12111CB2
:1003D300700519191980A5E869700C763F187680A5
:1003E30018F618F6E8F922E6CDC0E018ECC0E0E60E
:1003F30033CD33CDD313F6E719FCE7191933CC33D7
:10040300C3947F400ECD9D502408E65480F6E41833
:10041300F6800FF4043D14501408E6447FF6187672
:1004230080E418F618F6D0E0FCD0E0FD22CCD3131C
:10043300CCFD18E4C6CBC0E018E4C6CAC0E0080887
:10044300ED08C633E613F618E433C675F003C3CAE2
:1004530097CA09CB97CB199C40047D08802EBD0019
:100463000302052316B6FF050606081618C3CA338A
:10047300CACB33CB33CA27CA09CB37CB193CC37D8D
:1004830008803E187D0820E75CC633C6CA33CACB52
:1004930033CB33DDF1D5F0EB30E77BCA97CA09CB19
:1004A300974ACB199C406F4B7025E620E02180666C
:1004B300187D08C3CA97CA09CB97CB199CD3C633F7
:1004C300C6CA33CACB33CB3350C9DDE7D5F0E1D34A
:1004D300E4C636C608C636C608C636C608C636C615
:1004E3001818188031C3CA97CA09CB97CB199CB384
:1004F3004097C633C6CA33CACB33CB33DD34D5F0CA
:100503002EC6A2E0C640C8CA27CA09CB37194A700B
:10051300BECB3CB480B90808E63308E633601F1845
:100523001818D0E0FAD0E0FBD0E0FCD0E0FD2218B0
:100533007D08CA27CA09CB37CB193CD3808013F671
:1005430018E4B67F11F618B6FF0EF618C60470D27B
:100553000808768080CAF618F618F680C5001212CD
:1005630065604F1212926012E7548066F6121119F9
:1005730070111212D1703B090909F4F618F618F636
:1005830018F62212112E70151212DB08080860EA01
:10059300E6447FF618768018E4F618F6221212DB8A
:1005A30060161212D17012E4F608F608F608E65443
:1005B30080F609090918181822EAC0E0EBC0E0EC3C
:1005C300C0E0EDC0E0E687F0A4FBACF008E687F0FE
:1005D300A42CFCE435F0FA1809E687F0A42C4B6050
:1005E300027401CA35F0FCE433FB09E687F0D2F765
:1005F300A42CCB35F0FC1908E687F0A42BCC35F0FE
:10060300FBE433FD0819E687F0D2E7A42C4ACB3587
:10061300F0CD3400FC09E687F0D2E7A42DCC35F009
:10062300FDE433FA0918E687F0D2F7A42CCD35F0B0
:10063300CA3400FC08E687F0D2E7D2F7A42ACC3507
:10064300F07A7E20E70B0ACB33CBCD33CDCC33CC42
:1006530033CB3350147004ED30E00ED2F1E4CD3DD2
:10066300CDCC3CCC3B5005DA05C2F1EB547FC6330D
:1006730008E63392F0FBE73309E733C39A502D2B97
:1006830070190C0D4C4D70151806E608C333700D28
:1006930020F10AA2F013F6E418800B4024E4F630AC
:1006A300F002768018F618F618F68024D33B14501F
:1006B3001074FFA2F013F6187680E418F618F6808B
:1006C3000FA2F013F618E63303F618ECF618EDF65E
:1006D300D0E0FDD0E0FCD0E0FBD0E0FA22C0E07433
:1006E300F2120ACFA2AFE433FED2AFE5A7FFE5A132
:1006F300F5085F5410600612221C75A1EFE5085F30
:100703005408600812222275A1F7802BEFA2E0C0E3
:10071300D0E508A2E092F01211A4158182F05017DF
:10072300906198E0F8900AF8E0C398A2D265D033BC
:100733005002E8F075A1FEEEA2E092AF7F01020B3A
:100743002EC0E074F2120ACFA2AFE433FED2AF9010
:1007530061A4E0F8759B00E5915854086008759111
:10076300F712226A802AE59158541060087591EFB8
:10077300122270801BE8A2E0C0D0E591A2E092F0C3
:100783001211A4158182F05007E0C2E0F01223B4E5
:100793009061A3E0F8E5E9585404600E12238A75CA
:1007A300E9FB906193E0A2E640F2808BC0E074F233
:1007B300120ACFA2AFE433FED2AF9061A5E0F8E511
:1007C300BF585404600675BFFB1223CC02073AC31B
:1007D300E498F8E499F91208138026C3E49AFAE43A
:1007E3009BFBE920E7E9120813E498F8E499F9225E
:1007F300C3E498F8E499F9120813E498F8E499F932
:10080300C3E49AFAE49BFB22EB20E7CFE920E7E07D
:10081300B90010BB0008E88AF084F8AAF022E4FBD0
:10082300C8FA22EB70227B10C833C8C933C93350CE
:1008330007C39AC3DBF280069A50012ADBEAC83366
:10084300F4C8C933F4C9FA2275F008E4C833C8C937
:1008530033C933C99AC99B5004C92AC93BD5F0ECA3
:10086300FBC833F4C8E4C9FA221208AC20F01430F0
:10087300E72B74FFFCFBFA747F8022E4FCFBFA7421
:1008830080801AB48008BC00F2BB00EF800F50EBED
:10089300F9E4C39AFAE49BFBE49CFCE499C6CC1804
:1008A300C6CB18C6CA18C6F922E4C9C608CAC60800
:1008B300CBC6D3330308CCC63392F0C3947F402E08
:1008C30094184019C9B90704CACBCC225025C309CF
:1008D300CA33CACB33CBCC33CC33D9F422F4600D37
:1008E300C9CCC313CB13CBCA13CAD9F6CC22E4FCAD
:1008F300FBFA2214FCFBFA22080808EAC0E0EBC06A
:10090300E086F0E7A4FA180986F0E7A42AFA1809A2
:1009130086F0E7A42AFA180986F0E7A42AFA1986CA
:10092300F0E7A4FBE5F02AFA190886F0E7A42BFB0D
:10093300E5F03AFA190886F0E7A42BFBE5F03AFA5A
:1009430018180986F0E7A4C5F02BFBE43AFA190856
:10095300E7C5F0C6A426F6E5F03BFBE43AFA1886B1
:10096300F0E7A4F6E5F00826F6E43B08F6E43A08D7
:10097300F6D0E0FBD0E0FA22080808E630E71112CF
:100983001157120993080808C64480C6181818227C
:10099300181818E9799EC608CAC608CBC608CCC67B
:1009A300C370207996CACBCC7019798ECBCC7013D7
:1009B3007986CC700EF9802ACA33CACB33CBCC33B9
:1009C300CC331930E7F2CCCBCA3350147004EA307D
:1009D300E00DE4CA3ACACB3BCBCC3CCC500209C3B2
:1009E300E913C6CC182313C6CB18C6CA18C6F922F6
:1009F300E4CFC0E0E4CEC0E0E4CDC0E0E4CCC0E0AE
:100A030075F020C3E633F608E633F608E633F60856
:100A1300E633F6181818EC33FCED33FDEE33FEEF36
:100A230033FFC3EC9709ED9709EE9709EF9719196F
:100A330019400FFFEC97FC09ED97FD09EE97FE199E
:100A43001906D5F0BEECF709EDF709EEF709EFF754
:100A5300191919D0E0FCD0E0FDD0E0FED0E0FF2270
:100A63002518C582C0E0E51934FFC583C0E0E51849
:100A7300C3958224F810AF088583198582188008EE
:100A8300858319858218D2AFCEF0A3E520F0A37831
:100A930008E608F0A3DEFAEFF0A3E58124FAF8E60E
:100AA30008F0A3E608F0A3E608F0A30808E608F0B8
:100AB300A3E608F0A315811581D0E0FED0E0F81578
:100AC3008115811581E8C0E0EEC0E022C0D0251871
:100AD300C582C0E0E51934FFC583C0E0E518C395BE
:100AE3008224F310AF0885831985821880088583D3
:100AF30019858218D2AFC8F0A3E9F0A3EAF0A3EBFB
:100B0300F0A37908E709F0A3D8FAECF0A3EDF0A37A
:100B1300EEF0A3EFF0A3D0E0F0A3D0E0F0A3D0E099
:100B2300F0A3E520F0A3E5F0F0A32285198385184F
:100B330082E0C0E0A3E0F9A3E0FAA3E0FBA3780816
:100B4300E0F608A3DFFAE0FCA3E0FDA3E0FEA3E0E8
:100B5300FFA3E0C0E0A3E0C0E0A3E0F5D0A3E0F58D
:100B630020A3E0A3F5F010AF0885831985821880D0
:100B730008858319858218D2AFD082D083D0E0F85C
:100B8300D0E0321212C6B90003020BC8E49003018D
:100B930078BF790E8002F0A3D8FCD9FA9010BFAACF
:100BA30082AB8390008678B979018015E493A3AC76
:100BB30082AD838A828B83F0A3AA82AB838C828DDE
:100BC30083D8E9D9E77582547583EB7403120FDC7C
:100BD3007582DE7583267400120FDC0E0075F0102B
:100BE3008E1A8F1B85821F85831E85188285198324
:100BF300E0CEA3E0CF851F82851E83EBC9EAC8ED53
:100C0300CBECCAC3E833C8E933C9EA33CAEB33CB05
:100C1300C3EA9EF51DEB9FF51CB35004AB1CAA1D44
:100C2300EC33CCED33CDD5F0DAAE1AAF1B22121272
:100C330065601C12129260171212DB70071212D138
:100C43007001D322C0D01212D17006D0D0B322C308
:100C53002233D0D0501430E0F6C3E7960809E79664
:100C63000809E7960809E796B32220E0D5E6970836
:100C730009E6970809E6970809E697B322D083D0D7
:100C830082ECC0E0EDC0E0E493A3FCE493A3FDEDAC
:100C93004C600D120DA4EC24FFFCED34FFFD80EF3E
:100CA300E493A3FCE493A3FDED4C600D120E9EECC4
:100CB30024FFFCED34FFFD80EFD0E0FDD0E0FCE449
:100CC30093A3C0E0E493C0E022121265601B1212EA
:100CD3009260161212DB70071212D1600CB322C09D
:100CE300D01212D17005D0D022C32233D0D05013EA
:100CF30030E0EBC3E7960809E7960809E796080989
:100D0300E7962220E0E4E6970809E6970809E697C4
:100D13000809E69722851983851882E0A3FEE0A3DC
:100D2300F5207808E0A3F608DFFAE0A3FFE0A3C00C
:100D3300E0E0A3C0E0E0A3C0E0E0A3C0E0E0A3C024
:100D4300E010AF088582188583198008858218858D
:100D53008319D2AFD083D082020FE2D083D082E94D
:100D6300C0E0E493A3C386F0C5F095F0F908E493DB
:100D7300A386F0C5F095F0700BE493A3C3994005E7
:100D8300E9048002A3E475F002A42582F582E5F06C
:100D93003583F583D0E0F9E493A3C0E0E493C0E0A6
:100DA30022C0E0C3E49396087401939618400FE4BD
:100DB3009366700808740193661870007019A3A3F2
:100DC300C3E49396087401939618A3A3400DD0E04F
:100DD300D0E0D0E0020CBCA3A3A3A3A3A3D0E02242
:100DE300C0E074F2120ACFE589A2E150031220F6A3
:100DF300758900C2C57F01020B2EC0E074F2120A8E
:100E0300CFE58BA2E050031220F6758B00C2E88079
:100E1300E47404800474028000CCC0E0EDC0E0E51B
:100E230018C39CCCAD1950011D10AF068C188D1939
:100E330080068C188D19D2AF120F5ED0E0FDD0E082
:100E4300FC2274028000CCC0E0EDC0E0E518C39C36
:100E5300CCAD1950011D10AF068C188D1980068C6E
:100E6300188D19D2AF120F3CD0E0FDD0E0FC221256
:100E73001265602512129260201212DB70030212B7
:100E8300D1080808E76670101819E766700A181980
:100E9300E76670041819E76622F422C0E0C0F08800
:100EA300F0E4936670080874019366187000A8F064
:100EB300A3A3700BD0F0D0E0D0E0D0E0020CBCA331
:100EC300A3D0F0D0E022D083D082CCC0E0E493A3BF
:100ED3006006120FBD1470FAE493A360061210C4E7
:100EE3001470FAD0E0FCE493A3C0E0E493C0E022E2
:100EF300C008C3E096F50808A3E096420808A3E0FB
:100F030096420808A3E0964208A2D265D033E508CA
:100F13007001D3D00822C0E074F2120ACFA2AFE46A
:100F230033FED2AFC2C0E5D1A2E45003122198EE42
:100F3300A2E092AF7F01020B2ECAC0E0E493A3C5E7
:100F430082CCC582C583CDC583F0A3C582CCC582BF
:100F5300C583CDC583DAE5D0E0CA22CAC0E0E0A3E9
:100F6300C582CCC582C583CDC583F0A3C582CCC55C
:100F730082C583CDC583DAE6D0E0CA22C008C3E0C8
:100F830096F50808A3E096420808A3E096420808ED
:100F9300A3E09645087001D3D00822700908080819
:100FA300226016181818C6C333C608C633C608C647
:100FB30033C608C633C6D5E0EA22C0E0E493A3D320
:100FC3009C5010E493A3C39C400AD0E0D0E0D0E04F
:100FD300020EE6A3A3A3D0E022C09FF59FE473D043
:100FE3009F22D083D082C09FE493C0E0740193C05A
:100FF300E0740293F59F222518F58210AF08F518C7
:10100300400215198008F51840021519D2AF851949
:1010130083227404800A74038006740280027401BC
:10102300C0E0F404120FFAD0E01212A122C0D025BE
:101033001810AF08F518500205198008F51850026A
:101043000519D2AFD0D022BB0102E722C082C083F0
:1010530089828A83BB0003E08002E493D083D08239
:10106300226016080808C6C313C618C613C618C6D6
:1010730013C618C613C6D5E0EA22C0E0C0D0E8C044
:10108300E0E5A8D2AFC2C7A2E792AFD0E0F8D0D0D4
:10109300D0E032C3E0C696F608A3E0C696F608A3EE
:1010A300E0C696F608A3E0C696F622251810AF0808
:1010B300F518400215198008F51840021519D2AF2A
:1010C30022C0E0E493A36C7009D0E0D0E0D0E0024A
:1010D3000EE6A3A3D0E022C3E09608A3E09608A3FC
:1010E300E09608A3E096A2D265D03322E0667010A2
:1010F30008A3E066700A08A3E066700408A3E0662C
:1011030022E76670100809E766700A0809E7667047
:10111300040809E76622181818E6084608700AE664
:1011230008C3337005E633F4220822191919E709B5
:101133004709700AE709C3337005E733F42209222C
:10114300C3E096F008A3E096F008A3E096F008A3A6
:10115300E096F022181818E4C396F608E496F60809
:10116300E496F608E496F622E026F608A3E036F6BF
:1011730008A3E036F608A3E036F622E026F008A33B
:10118300E036F008A3E036F008A3E036F022E627C5
:10119300F60809E637F60809E637F60809E637F6EA
:1011A30022C0E0E8C0E0E58124FCF8E6A2E7D0E055
:1011B300F8D0E022E657F60809E657F60809E6579D
:1011C300F60809E657F622E056F008A3E056F008C1
:1011D300A3E056F008A3E056F022700422600D1835
:1011E300C6C333C608C633C6D5E0F41822E647F6AD
:1011F3000809E647F60809E647F60809E647F6222E
:10120300E056F608A3E056F608A3E056F608A3E076
:1012130056F622C6F4C608C6F4C608C6F4C608C6FF
:10122300F4C622C3E09608A3E09608A3E09608A3B9
:10123300E09622C3E7960809E7960809E7960809A6
:10124300E7962275D0007581407518017519030062
:10125300020B86E6F008A3E6F008A3E6F008A3E68F
:10126300F022E6084608C3134608336002E633F467
:1012730022600C08C6C313C618C613C6D5E0F422F1
:10128300E0F608A3E0F608A3E0F608A3E0F622E7F9
:10129300094709C3134709336002E733F422CAC07D
:1012A300E0E6F0A308DAFAD0E0FA22EAF0A3EBF0E2
:1012B300A3ECF0A3EDF022E0FAA3E0FBA3E0FCA390
:1012C300E0FD22E5C754F84401F5C7790122E7C3DD
:1012D3003319471947194722E6C3331846184618E6
:1012E30046222518F582E43519F58322C2AF75D657
:1012F3009F02000022120FE5162F00120FE5CE2FDA
:1013030000120FE5963000120FE5563100120FE57B
:101313009A3100120FE5BF3100120FE502320012BD
:101323000FE54F3200120FE5A73300120FE52D34FE
:1013330000120FE54B3400120FE5753400120FE570
:101343008F3400120FE59E3400120FE5A93400120A
:101353000FE5693500120FE5C23500120FE584363B
:1013630000120FE58C3600120FE5503700120FE51F
:10137300BC3700120FE5E73800120FE5F83800120A
:101383000FE56E3900120FE5003A00120FE5583AE7
:1013930000120FE5183B00120FE53F3B00120FE56B
:1013A300513B00120FE5A43B00120FE5E13B001295
:1013B3000FE5EE3B00120FE5713D00120FE5C63E4F
:1013C30000120FE5F83E00120FE58B3F00120FE508
:1013D300C43F00120FE5104000120FE52C4100122C
:1013E3000FE5754300120FE5804300120FE58B43B1
:1013F30000120FE5954300120FE5A04300120FE51D
:10140300BA4300120FE5C44300120FE5CE430012A6
:101413000FE5D94300120FE5014400120FE55C44C8
:1014230000120FE5804400120FE5A44400120FE5FB
:10143300024500120FE5464500120FE56245001212
:101443000FE5D94500120FE5114600120FE55D4681
:1014530000120FE5BA4600120FE5744700120FE5BC
:10146300584900120FE5B14900120FE5E14A001295
:101473000FE5074B00120FE5904C00120FE50C50DF
:1014830000120FE5DE5100120FE5A75300120FE51E
:10149300545400120FE5BF5500120FE55E560012BB
:1014A3000FE5A35600120FE50D5700120FE51C5769
:1014B30000120FE5A35900120FE5555B00120FE56B
:1014C300C25B00120FE5A15C00120FE5BA5D0012CA
:1014D3000FE5375F00120FE5565F00120FE5AB5FB4
:1014E30000120FE5B06000120FE5D86000120FE59F
:1014F300306100120FE50F6200120FE55362001214
:101503000FE59E6200120FE5096300120FE54A64BE
:1015130000120FE5AE6400120FE5FC6500120FE543
:101523005C6800120FE58D6800120FE5456A001232
:101533000FE59A6A00120FE59E6B00120FE53B6CF4
:1015430000120FE5946C00120FE5476D00120FE5D2
:10155300E96D00120FE5896E00120FE52E6F001280
:101563000FE56D8901120FE5AC8901120FE5F38BCD
:1015730001120FE53D8C01120FE5588D01120FE5A5
:10158300C88D01120FE5FD8D01120FE5718F011258
:101593000FE5F49101120FE51D9301120FE5B393CB
:1015A30001120FE5BB9C01120FE5509D01120FE5DF
:1015B30037A001120FE52AA101120FE58BA1011239
:1015C3000FE5A7A201120FE58CA401120FE59DA65A
:1015D30001120FE507A701120FE5D9A701120FE5C5
:1015E30090A801120FE59AA801120FE5C8A80112ED
:1015F3000FE585A901120FE55CAA01120FE523ABE4
:1016030001120FE5D5AB01120FE5FEAB01120FE599
:1016130020AC01120FE576AE01120FE54EAF0112B9
:101623000FE592AF01120FE5FAAF01120FE5B2B069
:1016330001120FE5E4B001120FE528B101120FE525
:101643005EB101120FE5AAB101120FE5FFB101125C
:101653000FE504B201120FE557B201120FE57CB298
:1016630001120FE58BB301120FE5EFB301120FE582
:101673005FB401120FE5EBB401120FE5B8B7011225
:101683000FE59CB801120FE51FBA01120FE555BC17
:1016930001120FE503BD01120FE5B3BD01120FE502
:1016A300F4BF01120FE597C001120FE5DEC001126E
:1016B3000FE58AC201120FE59EC201120FE5A8C20F
:1016C30001120FE5D0C201120FE5DCC201120FE5D2
:1016D300FBC201120FE5E0C401120FE517C50112A9
:1016E3000FE521C501120FE557C501120FE5A6C687
:1016F30001120FE5EAC601120FE592C701120FE5C9
:1017030075C801120FE520C901120FE56CCA011259
:101713000FE56ACB01120FE510CC01120FE5A0CC47
:1017230001120FE5B7CC01120FE5EECC01120FE564
:10173300F8CC01120FE503CD01120FE521CD011203
:101743000FE565CD01120FE5C2CD01120FE5E7CD1F
:1017530001120FE501CE01120FE58DCE01120FE547
:10176300AACF01120FE517D001120FE5FED0011227
:101773000FE525D101120FE599D101120FE514D21E
:1017830001120FE518D301120FE50ED401120FE574
:10179300BDD401120FE5D0D501120FE56CD60112AD
:1017A3000FE5F9D601120FE5D7D701120FE50FD8D0
:1017B30001120FE567D801120FE530D901120FE5C9
:1017C30051D901120FE5D8D901120FE5FCD9011245
:1017D3000FE51EDA01120FE567DA01120FE57DDC72
:1017E30001120FE564DD01120FE515DE01120FE5AD
:1017F3004BE001120FE59BE001120FE5DBE0011264
:101803000FE51DE101120FE579E101120FE5A7E1F3
:1018130001120FE5CBE101120FE51EE201120FE504
:101823004CE201120FE585E201120FE5DAE2011243
:101833000FE540E301120FE594E401120FE5B7E66B
:1018430001120FE524E701120FE54DE701120FE541
:10185300D8E701120FE53FE801120FE58AE801120C
:101863000FE5AEE801120FE5D2E801120FE52DE90D
:1018730001120FE548E901120FE501EA01120FE534
:10188300748C04120FE5B38C04120FE578800212F6
:101893000FE5BE8002120FE59E8102120FE5A082C2
:1018A30002120FE5A38302120FE52F8502120FE543
:1018B3008D8502120FE54A8602120FE56887021230
:1018C3000FE5D98702120FE5158802120FE5638829
:1018D30002120FE56D8802120FE5B18802120FE5BF
:1018E3000D8902120FE5A88902120FE5258A02125B
:1018F3000FE5F48A02120FE58D8B02120FE5AD8B13
:1019030002120FE5E38B02120FE5148C02120FE5AE
:10191300D58C02120FE5E58C02120FE5398D021208
:101923000FE5548D02120FE5668D02120FE56F8DE0
:1019330002120FE5C98D02120FE5258E02120FE583
:10194300718E02120FE58C8E02120FE5BD8E02120C
:101953000FE5DA8E02120FE5E68E02120FE55A90BA
:1019630002120FE5739002120FE5DA9002120FE5EF
:10197300ED9002120FE5FB9002120FE5AF910212F8
:101983000FE5939202120FE5999302120FE5239448
:1019930002120FE52D9402120FE59A9402120FE53D
:1019A300B19402120FE5E39402120FE51C950212A3
:1019B3000FE5469502120FE5A79502120FE5C795AD
:1019C30002120FE5E59502120FE52B9602120FE5C1
:1019D300519702120FE59E9702120FE5CD9702125F
:1019E3000FE5439802120FE56B9802120FE5A498D6
:1019F30002120FE5B29802120FE50A9902120FE5DF
:101A0300599902120FE5989902120FE5C89902122B
:101A13000FE5F49902120FE5FF9902120FE51D9AE3
:101A230002120FE5DF9A02120FE5E99A02120FE59F
:101A3300249B02120FE53A9B02120FE58F9B0212C1
:101A43000FE5A39B02120FE5B19C02120FE5C49CA4
:101A530002120FE5D99C02120FE57B9D02120FE5DE
:101A6300FE9D02120FE5BC9E02120FE5C79E0212F5
:101A73000FE5F39F02120FE50FA002120FE561A01D
:101A830002120FE5A0A002120FE5B5A002120FE5A6
:101A930017A102120FE5A6A102120FE5F1A102128E
:101AA3000FE542A402120FE5C0A402120FE535A50B
:101AB30002120FE557A702120FE56FA702120FE5F7
:101AC30072A702120FE57EA702120FE592A7021278
:101AD3000FE59AA702120FE5CDA702120FE57DA825
:101AE30002120FE5F3A802120FE566A902120FE531
:101AF3001AAA02120FE5CFAA02120FE5EEAA0212EA
:101B03000FE58EAB02120FE59AAB02120FE5C5ABE0
:101B130002120FE5C8AB02120FE532AC02120FE559
:101B23005AAD02120FE532AE02120FE5BDAE02123C
:101B33000FE5D6AF02120FE593B002120FE5CCB05A
:101B430002120FE5FDB002120FE5BBB102120FE561
:101B5300EBB102120FE5C6B202120FE55FB3021238
:101B63000FE5EAB302120FE59BB402120FE51EB5AF
:101B730002120FE550B502120FE591B502120FE5FF
:101B830065F502120FE5CAF502120FE507F6021218
:101B93000FE556F602120FE56CF802120FE54FFA45
:101BA30002120FE5B9FD02120FE5F4FD02120FE573
:101BB30016FE02120FE579FE02120FE5ADFE0212C8
:101BC3000FE5D0FE02120FE5FDFE02120FE559FFED
:101BD30002120FE5649E03120FE5E29E03120FE566
:101BE300189F03120FE5849F03120FE5F7A003125A
:101BF3000FE513A103120FE558A103120FE5E6A1A8
:101C030003120FE53FA203120FE56CA303120FE5C6
:101C13002AE402120FE5DBA403120FE547A5031222
:101C23000FE5A8A503120FE5E9A503120FE596A694
:101C330003120FE5A8A703120FE5D3A703120FE5BD
:101C43001EA803120FE565A803120FE5F7A80312F8
:101C53000FE5B2A903120FE5078004120FE53780E1
:101C630004120FE58C8004120FE5558B04120FE567
:101C7300D08B04120FE529AA03120FE533AA03122E
:101C83000FE57FAA03120FE5662E00120FE50EABD8
:101C930003120FE5BEAB03120FE552AE03120FE5BD
:101CA3005BAE03120FE5AEAE03120FE5D7AE031220
:101CB3000FE53EAF03120FE5CFAF03120FE511B0EF
:101CC30003120FE55BB003120FE5BAB003120FE581
:101CD300E6B003120FE577B103120FE5B6B10312B5
:101CE3000FE5F5B103120FE52AB203120FE53CB27B
:101CF30003120FE54EB203120FE56DB203120FE5A7
:101D030076B203120FE52CB303120FE56CB3031283
:101D13000FE5AC8804120FE50DF803120FE543F845
:101D230003120FE58CF803120FE5DCF903120FE53C
:101D33003BEA01120FE57AEB01120FE5B6EB011254
:101D43000FE575ED01120FE59EED01120FE531F080
:101D530001120FE575F001120FE5FEF101120FE517
:101D630096F201120FE5FEF201120FE59FF3011245
:101D73000FE5E1F301120FE521F401120FE5ACF5D4
:101D830001120FE51CF701120FE541F901120FE5EE
:101D93006FF901120FE596F901120FE59FF9011290
:101DA3000FE526FA01120FE544FD01120FE59B8DA5
:101DB30004120FE5B18D04120FE5298C04120FE50F
:101DC300EFE703120FE502E803120FE59FE80312A2
:101DD3000FE5DAE803120FE5F5E803120FE51AE958
:101DE30003120FE55FE903120FE590E903120FE514
:101DF300C1E903120FE547EB03120FE5F482041266
:101E03000FE52A8304120FE5468304120FE5888346
:101E130004120FE5988304120FE52D8404120FE5D5
:101E2300378404120FE54F8404120FE5C5FD011238
:101E33000FE52DFE01120FE5BCFE01120FE5BFFEFB
:101E430001120FE5EBFE01120FE5008003120FE50F
:101E5300558003120FE53E8103120FE5D78103126C
:101E63000FE5218203120FE5838203120FE59782A8
:101E730003120FE5798403120FE5F48403120FE5CF
:101E83001E8503120FE5F78603120FE5128703126F
:101E93000FE5618703120FE5778703120FE5848748
:101EA30003120FE5B88703120FE5D18703120FE57D
:101EB300718803120FE5CB8803120FE5198903120A
:101EC3000FE52C8A03120FE59D8C03120FE5CB8CD3
:101ED30003120FE5598D03120FE5BA8D03120FE5B7
:101EE300BF8D03120FE5FB8D03120FE55D8E031209
:101EF3000FE52D8F03120FE5528F03120FE55C8F51
:101F030003120FE55F8F03120FE5CE8F03120FE568
:101F1300E98F03120FE5FC8F03120FE528900312DC
:101F23000FE5639003120FE5669003120FE5A2908D
:101F330003120FE5DB8B04120FE5F38B04120FE59D
:101F4300D1BC03120FE520BD03120FE5C2BE03127D
:101F53000FE580C003120FE5C8C003120FE5EAC105
:101F630003120FE51BC303120FE53DC303120FE575
:101F730099C303120FE51BC403120FE551E40212C8
:101F83000FE57CE402120FE569E502120FE5EEE5C9
:101F930002120FE557E602120FE5A3E602120FE560
:101FA30022E702120FE5B4E702120FE540E802123E
:101FB3000FE582E802120FE5EEEC02120FE56EEE7A
:101FC30002120FE53EEF02120FE565EF02120FE575
:101FD300C6F102120FE552F202120FE56CF3021280
:101FE3000FE54BF402120FE5CDF402120FE5DB907F
:101FF30003120FE5959103120FE5079203120FE504
:10200300A39203120FE5139303120FE5CC9503126A
:102013000FE5A39603120FE5109703120FE58D98B2
:1020230003120FE5579903120FE59E9A03120FE56A
:10203300B19B03120FE54A9C03120FE5109D031297
:102043000FE519EE03120FE56DEE03120FE5C5EE72
:1020530003120FE510EF03120FE572EF03120FE502
:102063000BF003120FE573F003120FE57FF0031279
:102073000FE527FC03120FE558FC03120FE512FDD1
:1020830003120FE578FD03120FE5DFEB03120FE5F3
:102093006BED03120FE5268D04120FE5378D041245
:1020A3000FE501FE03120FE50FFE03120FE5D98DB5
:1020B30004120FE5BF8A04120FE5CF8A04120FE55D
:1020C300EA8A04120FE54B8B04120FE5AA87041268
:1020D3000FE52F8804120FE5938804120FE5988605
:1020E30004120FE5BA8604120FE5248704120FE5E4
:1020F3002F8704120FE5738704120FE54FC40312F1
:102103000FE5DEC403120FE5ECC403120FE52DC582
:1021130003120FE547C503120FE5C4C503120FE50C
:10212300BEC603120FE5E3C603120FE500C7031291
:102133000FE51DC703120FE551C703120FE576C75D
:1021430003120FE5BEC703120FE539C803120FE5EB
:1021530049C903120FE5E5E003120FE5F3E00312AB
:102163000FE56DE103120FE551E203120FE50AE4F7
:1021730003120FE5798D04120FE508CA03120FE568
:1021830074CA03120FE533CB03120FE53DCC0312E0
:102193000FE596CD03120FE5F1CD03120FE546CE01
:1021A30003120FE54FCE03120FE561CE03120FE5C5
:1021B300CBCE03120FE5DFCE03120FE5A6D3031236
:1021C3000FE5FBD303120FE5F7D503120FE529D66D
:1021D30003120FE54BD603120FE564D603120FE586
:1021E3007DD603120FE587D703120FE522D803121A
:1021F3000FE5938104120FE5B78104120FE5D08137
:1022030004120FE5038204120FE5348204120FE572
:10221300628204120FE5C48204120FE5D382041212
:102223000FE5DD8204120FE5EA8204120FE5BAF02E
:1022330003120FE5E0F003120FE51DF103120FE5A2
:102243002CF103120FE54BF103120FE5B3F1031267
:102253000FE5BCF103120FE51BF203120FE53FF28A
:1022630003120FE5FEF203120FE50BF303120FE562
:102273001CF303120FE5BD8C04120FE5DA8C041274
:102283000FE599D803120FE5F7D903120FE504DA26
:1022930003120FE517DA03120FE536DA03120FE51F
:1022A3004CDA03120FE560DA03120FE5D5DA0312F5
:1022B3000FE53ADB03120FE5EADB03120FE5BFDCA0
:1022C30003120FE5CFDC03120FE5DEDC03120FE58B
:1022D300868904120FE5AA8904120FE5D289041234
:1022E3000FE5FA8904120FE54AF303120FE571F3C0
:1022F30003120FE592F303120FE5F7F303120FE551
:10230300B0F503120FE5C9F503120FE5D5F5031276
:102313000FE5E9F503120FE507F603120FE511F6D2
:1023230003120FE51BF603120FE52EF603120FE55A
:1023330081F603120FE5BAF603120FE5E9F603126D
:102343000FE537F703120FE586F703120FE5A1F741
:1023530003120FE5ABF703120FE5BCF703120FE50A
:1023630002F803120FE5A5FF02120FE595B303125E
:102373000FE5BFB303120FE5DBB303120FE5EEB3B3
:1023830003120FE504B403120FE561B403120FE562
:1023930094B403120FE5D0B803120FE5F6B9031294
:1023A3000FE529BA03120FE575BA03120FE5A1BBB6
:1023B30003120FE5C9BB03120FE5DEBB03120FE5E2
:1023C300EEBB03120FE532BC03120FE593BC0312FD
:1023D3000FE5A3BC03120FE5528404120FE56D84CD
:1023E30004120FE5968404120FE5B08404120FE57E
:1023F300D58404120FE5F48404120FE50C8504124E
:102403000FE53A8504120FE5548504120FE5B9FF71
:1024130003120FE56FE403120FE576E403120FE5F1
:1024230082E503120FE5B2E503120FE5D8E50312C7
:102433000FE5FBE503120FE51DE603120FE557E673
:1024430003120FE5BDE603120FE5F6E603120FE5EF
:1024530042E703120FE56FE703120FE58FE703125D
:102463000FE53FFA03120FE557FA03120FE545FB99
:1024730003120FE524FC03120FE5858504120FE513
:10248300F78504120FE5358604120FE576860412EC
:102493000FE517DD03120FE536DD03120FE585DDCA
:1024A30003120FE5A1DD03120FE5D2DD03120FE5E1
:1024B300E2DD03120FE5EFDD03120FE5FCDD03128E
:1024C3000FE5E8DE03120FE526DF03120FE530DF29
:1024D30003120FE540E003120FE54BE003120FE593
:1024E3005DE003120FE566E003120FE570E00312EF
:1024F3000FE5E9CE03120FE52ED303120FE53CD30C
:1025030003120FE5F98C04120FE51F8A04120FE57D
:10251300498A04120FE5C97F00120FE5518D041299
:102523000FE5BB8D04120FE57A6F00120FE5987467
:1025330000120FE50CE402120FE5D8E202120FE5D8
:1025430035E202120FE5E8E002120FE593DE021214
:102553000FE529DE02120FE5E1DD02120FE553DD7F
:1025630002120FE546DD02120FE540DA02120FE513
:10257300152E00120FE5EE2D00120FE5A2D7021261
:102583000FE56BD602120FE5AA2D00120FE56F2D92
:1025930000120FE5BFD502120FE505D402120FE5B5
:1025A300B5D102120FE53CD102120FE5E3D00212BE
:1025B3000FE573D002120FE54AD002120FE52ACEBF
:1025C30002120FE5F6CD02120FE5C3CD02120FE59D
:1025D300A7CD02120FE5C0CC02120FE578CC021290
:1025E3000FE5C3CA02120FE543CA02120FE540CA40
:1025F30002120FE541C902120FE50FC902120FE5DE
:102603004CC802120FE577C602120FE508C6021284
:102613000FE5492D00120FE5302D00120FE5DC2CDC
:1026230000120FE5382C00120FE5AE2B00120FE558
:10263300DAC502120FE5D7C502120FE5C4C50212AF
:102643000FE54D2B00120FE56FC502120FE55EC5B6
:1026530002120FE550C402120FE51AC402120FE56D
:10266300FB2A00120FE5EDAA03120FE5C8C30212FD
:102673000FE569C302120FE538C302120FE500C06C
:1026830002120FE5C0BF02120FE5B4BF02120FE53D
:1026930014BF02120FE554BE02120FE5D6BB02129D
:1026A3000FE567B902120FE525B902120FE5F9B775
:1026B30002120FE5AEB702120FE5EDB602120FE5F7
:1026C30030B602120FE5C6B502120FE500B60212CC
:1026D3000FE5E92A00120FE57EA40300000080FB4A
:1026E300E473000136360101000102010001030118
:1026F3000001040106060502000007010034080179
:10270300000F090401010D0100FF0E08000017026C
:102713000000190100FF1A0100011B0100FE1C014A
:1027230000081D0200001F01000120010001210219
:1027330000002301000F24020000260100012701ED
:102743000008280200FF2A0100072B0102402C0188
:1027530000002D0100012E0100012F0100FF3001B7
:102763000B1C310800003A0100083B01000F2F0148
:1027730000000302710230016002110270020102C3
:10278300020202028002100261023A004100630267
:102793007302720262024302000213023800000253
:1027A30000020402120200020002000200020402FC
:1027B3000402370037003C024402000239000002E1
:1027C3000002650200023502810200020502820254
:1027D30083020002030071003001600011007000E9
:1027E3003102200350048000100061000000140037
:1027F30063007300720062004300000013000600D0
:1028030000000000040012000000000000000000AF
:1028130004000400370037003C02440000000000BD
:102823000000000065000000350081000000050085
:102833000000830000000304710402046004110417
:10284300700402040204010402041004610400047D
:102853001404630473047204620443040004130441
:102863000604000400040404120400040004000429
:102873000004510464000004000400044404000440
:1028830000040004000465040004350481046400AA
:10289300050400048304000401037103010301031D
:1028A30001030103010322030203010310030003D5
:1028B30000030003000300030003000342030003BB
:1028C3002403060300030003040312032503230365
:1028D3002503230304030403000300030003440349
:1028E3000003000323030003650321003503810371
:1028F300000305030003000300030101710101014B
:1029030001011101010131010101010180011001E6
:1029130061013B0014006301730172016201430111
:102923000001130106013D013500040112010001FC
:1029330000010001000104010401330133013C01E2
:102943004401320136000001000165010001350038
:1029530081010001050182018301000136000100AC
:10296300060000000F00000000000000000000004F
:10297300000003FFFF00000403FFFF0000FFFF0F41
:10298300F4010005C4040320000100030B00000050
:10299300000000000003010F000006201300CA1FFF
:1029A300010006200200941F03009A1F0400A01FC9
:1029B3000500A61F0600B21FFFFF000001AA1506AF
:1029C300D41508CE150BEC1510261502B01505C24B
:1029D3001507B6150C8C150D9E15FF000003EAF5BF
:1029E300E5D5D5C5B5A595958585757565655555A4
:1029F300454535352525151505CA19FA19D019D6B2
:102A030019F419E819E219001A061A0C1A181ADC33
:102A130019C419BE1900160F00000B150B02000292
:102A2300220F32000006BA1ACC1AD21A9419D81AF5
:102A33008E199A19CE18C81804190A19FE18B6184F
:102A43001A1B381B3E1B201B2C1B261B3030161851
:102A53001920231A1C1E300C0E020B040B0A070844
:102A6300000F00383C3E363B3B352B432C303017B0
:102A7300181921301B1D1F300001191618161615C1
:102A830023030000034948424D18172505020E1B76
:102A9300DE1AE41AF01AEA1AEE19121A321B1E1A77
:102AA300241A020402010101010902DA18E018D410
:102AB300181019000000000000E618F81800BE0402
:102AC3000A150004007F00E8030C00280000000042
:102AD30000090308100C0A03080900040001FF1E83
:102AE3001E0C05040F08C082C0838A828B83E0D248
:102AF300E7F0121EFE023B9DC082C0837900122FB5
:102B0300B5125F06C082C083900334124C8CD0830D
:102B1300D082C3E09CA3E09D500C1265DAFAA3E0D7
:102B2300122B2C600109023B9DFBEA75F00BA4FA02
:102B3300A8F075F00BEBA428FB900336E02AF8A36A
:102B4300E03B8882F583E0540F2274F7120A63890D
:102B530008122FB512305BACF075F00BE9A42CF919
:102B6300900336E028FEA3E039FF74016508600690
:102B73007402650870208A828B83123047123F7D6E
:102B830074026508701B122F0612308E70138E822A
:102B93008F83E4F0800BEA2403FCEB12302912301C
:102BA30035EEFAEFFB1226D2023EDA74F4120A6310
:102BB300126F0179008E828F83E06076890A890B18
:102BC3008065E50A75F00BA4FAA8F075F00BE50B28
:102BD300122B397046E50A75F00BA4F8AAF075F0CC
:102BE3000BE50B12306D8E828F83E0850882850999
:102BF3008312314F850882850983A3123F7DEE241A
:102C030003FCEF123032123D5B125980AA08AB0964
:102C13001226D27901900334125395E50A2401F563
:102C23000AE50B3400F50B122F0EE50A9AE50B9B10
:102C3300409002412774F5120A63EAFEEBFF740B1E
:102C43001212E5123D60750A01EC4D602BEC126F18
:102C53001DED125F06123F757901122642E5084504
:102C630009606F850882850983A3126F0B7902AA15
:102C730008AB09122642805AE5084509602B125F0A
:102C83000A1245D4123D5C123078700CEEFAEFFB59
:102C930012262AE9F50A80CBEE2403FA122FB0702C
:102CA300317903EEFAEFFB80CA8E828F83A3E0644F
:102CB300FE7003A3E0F4700BEE24030A0A0A122F3A
:102CC300B0700CEEFAEFFB12262AE9F50A800375C1
:102CD3000A00A90A7F03020D1874F7120A6390030E
:102CE30034123EEAEA4B602FEA75F00BA4FAA8F01F
:102CF30075F00BEBA428FBEAFEEBFF121D249003F7
:102D030036123EEA9003361251DA6012EEFCEFFD02
:102D130079001226668007900336E4F0A3F0023EA2
:102D2300DA900334124944C3EE98EF9922C082C06B
:102D330083EC4D600512248C80097C087D007900AA
:102D4300122666023B9D74F6120A637900EA4B6011
:102D5300187800880812624DEB1265D66004790179
:102D6300780808E8C3940840EA023F8674F7120A19
:102D73006374F31210AEECFEEDFF851882851983A0
:102D8300E4F0041212E5EAF0A3EB125706740312FF
:102D930012E5AC82AD83EEFAEFFB122618EEFAEFE2
:102DA300FB122612023ED574F7120A6374F3121053
:102DB300AEECFEEDFF851882851983E4F0EAFCEBA7
:102DC300FD74031212E512314874011212E5123F29
:102DD300718E828F83123F7D74FE68700374FF6966
:102DE3006004790180027900023ED574F7120A6308
:102DF300EAFEEBFF122E4C7014122E578E828F8335
:102E0300E0F4F88A828B83E058F01226D2A90802F4
:102E13003EDA74F7120A63EAFEEBFF7508008E824E
:102E23008F83E06022122E4C701D122E578A828BE4
:102E330083E08F838E82F8E058700CE0F88A828BEF
:102E430083E048F01226D280C4122660E9F50874A4
:102E530001650822126F1612305F122FA1FAA3E048
:102E630039FB2274F4120A638A088B097C007D0003
:102E7300122F06123035122FC6126F0879008508FB
:102E830082850983A3E064FE7003A3E0F460717E8E
:102E9300007F008062EEFAEF122B2C6057EEFAEF00
:102EA300FBEA75F00BA4FAA8F075F00BEBA428FB72
:102EB300900336E02AF50AA3E03BF50B85088285EB
:102EC3000983A3125654850A82850B83A3E06A7093
:102ED30003A3E06B701EE50A2403FAE50B122FB17E
:102EE300700AE50A2403FCE50B123032122FBA797B
:102EF30001125F1C1238A5122F0EEE9AEF9B40951C
:102F0300024127EA24030A0A0AEB22900334125AE5
:102F1300F3C32274F3120A638A088B098A828B83B0
:102F2300A3126F0B122FB5126F08750C00122F0628
:102F3300122FB170547E007F008049122F93FAA3A1
:102F4300E0398A82F583E0540F6036122F93F50A35
:102F5300A3E039F50BE50A2403FCE50B12303C34FE
:102F630000FB122486E964017017850A82850B83AE
:102F7300A3125BB4A3123F7D122FBA750C01125F2B
:102F83001C1238A5122D2440B2A90C7F05020D187E
:102F9300EEF8EFF9E875F00BA4F8122FA122AAF0CE
:102FA30075F00BE9A42AF9900336E02822EF1230DA
:102FB3008822126F1CEB22122FC6125F17EEF0A3AA
:102FC300EFF022E508126F1DE5092274F5120A637A
:102FD300EAFEEBFF8E828F83A3126F0B7C007D00D2
:102FE300EE24030A0A0AEF123035EEFAEFFB12263B
:102FF30060E9F50A7401650A7029126F1612305BD5
:10300300AAF075F00BE912306D850882F583123052
:1030130047123078700DE5082403FCE509123029C6
:10302300123035022CD53400FDEE2403FAEF2212C0
:10303300303C3400FB122618223400FDE50824033B
:10304300FAE50922A312304C2212305022E0F8A3F1
:10305300E0F98E828F83A32212305F223400F5833E
:10306300124948E875F00BA4F822122FA7F508A31C
:10307300E039F50922E8F0A3E9F0E5082403FAE5CD
:10308300091230882212308E6401223400FB12268A
:1030930012E92274F3120A6374E61210AE126F017E
:1030A300750C01750800750900750A00750B00851C
:1030B3001882851983E4F0EE2403FCEF3400FD74D9
:1030C300031212E5123148E964017023740B1212E2
:1030D300E5123F7574011212E51256587003A3E00E
:1030E30069605185188285198385820885830974EF
:1030F3000D1212E5E412314F740E1212E5123F7DE8
:10310300740D1212E5AA82AB83121C88E964017064
:103113000B740D1212E585820A85830B780A12104F
:103123001DAC08AD09EEFAEFFB122624740212104F
:1031330030E9F50CEEFAEFFB122570A90C741A12A4
:103143001030022F8E12341B1212F822123EE51297
:10315300494422C082C0837800790080031232463A
:10316300122F0EE89AE99B5029E8FAE9FBEA75F079
:103173000BA4FAACF075F00BEBA42CFB900336E038
:103183002AFCA3E03B8C82F583E0540F70CF7900D7
:1031930080027901023B9DC082C083902AC41249F8
:1031A3009AEC75F012A4FCA8F075F012EDA428FDBA
:1031B30079FF7A677B0B122666023B9D74F7120A2E
:1031C30063E9FEEAFF7A007B00780079008028E853
:1031D300FCE9FDEC75F012A4FC85F00875F012ED26
:1031E300A4250812365BC39E400AE0FCEFC39C4053
:1031F3000312377A12324612364F40D3023EDAC0F8
:1032030082C08378007900800312324612323A502A
:103213001F12365FF470F2E875F012A4F8AAF07585
:10322300F012E9A42AF9746728FA740B39FB8004B5
:103233007A007B00023B9D902AC4123710C3E89AA0
:10324300E99B22E8240108E93400F92274F0120A08
:103253006374F31210AE8A0A8B0B8C0C8D0D8908E4
:10326300EC450D6016AA0CAB0D1213468A0E8B0F9C
:10327300AE0EAF0FEE4F600302330D12131C8A0E16
:103283008B0FA80EA90FE8FEE9FFE849607C902A9E
:10329300D212336F602274036508600674046508F4
:1032A30070167A047903121316902AD212338640C9
:1032B300077A007B0002336C902AD012336F601BB5
:1032C30074016508600674026508700F7A0279015B
:1032D300121316902AD012338650D6851882851978
:1032E300837401F01212E5125980AC0CAD0D740316
:1032F3001212E5123414740B1212E5123D681243D4
:103303005DE412596812180E8004EE4F604A78008B
:1033130074FF2508C39404500278048E828F8312AD
:1033230059808E828F83A3A3A3A3E508F0E88E823E
:103333008F83A3A3A3A3A312598812080B123727C1
:103343008E828F83A3A3A3A3A3A3A3F012371E127A
:1033530012BA125F001212AE12337440059010C3FA
:10336300E4F01216E8EEFAEFFB02494E125AA249B4
:10337300227A047900121316902AC41265BCEA98C3
:10338300EB992212339F75832A7582C4E493C39801
:10339300F8A3E49399F9C3EA98EB9922E493F874B8
:1033A3000193F92274F2120A6374F31210AE8A08BD
:1033B3008B09ECFEEDFF750A00EEFAEFFB121346E4
:1033C3008A0C8B0DA80CA90DE849603E888289837D
:1033D300E065087004A3E06509602F88828983A3F0
:1033E300A3A3A3E0C394055021125DAE8518828583
:1033F30019837401F01212E5125DB2EEFCEFFD7455
:10340300031212E5123414750A01A90A740D025449
:103413004C12341B12130422AA82AB831226188582
:103423001882851983AA82AB832274F6120A631267
:103433003469600FA3A3A3A3E014C39404500479D5
:103443000180027900023F8674F6120A631234691E
:10345300600FA3A3A3A3E014C394025004790180D3
:10346300027900023F861213408A828B83E58245EC
:10347300832274F6120A63123469600BA3A3A3A315
:10348300E07004790180027900023F86C082C08324
:10349300EAFCEBFD7A007B00023B9AC082C0837C8E
:1034A300007D00023B9A74F4120A6374F31210AEA7
:1034B300EAFEEBFF8C0A8D0BC3EC94F8ED94FF400E
:1034C30007EE4F7003023562750800750900802E00
:1034D3008518828519837401F01238CD1212E51212
:1034E30038DB601374031212E5AC82AD83EEFAEF9E
:1034F300FB122486E97049E50824011236FB902A61
:10350300C4E4125AAAE50898E509995052E50875EA
:10351300F012A4F8AAF075F012E509A42AF91265CD
:10352300EF60D4EE4F70A974FF650A700474FF65F1
:103533000B60C41238BD650A7004A3E0650B70B755
:10354300E50875F012A4F508A8F075F012E509A4D2
:1035530028F50974672508FA740B3509FB80047A8A
:10356300007B0002412274F4120A6374F31210AE5A
:103573007508001213468A0A8B0BAE0AAF0BEE4F87
:10358300602A8518828519837401123EDFF8A3E04F
:10359300F9740B1212E51240001225767C127D009D
:1035A30079FFEEFAEFFB12266675080112337450A9
:1035B300099010C37401F01216E8A908024122749D
:1035C300F7120A63E9FE74FE6A700374FF6B7800F6
:1035D30079007005805212324612364F504AE8FC89
:1035E300E9FDEC75F012A4FCAFF075F012EDA42F19
:1035F30012365BF460E0E8FCE9FDEC75F012A4FC24
:1036030075F012EDA42FFD74672CF582740B3DF554
:1036130083E06A7003A3E06B70BC800912365F1409
:10362300C39404401712324612323A5018EE70EC2B
:1036330012365F64016005E0640370E91238AEFA84
:10364300A3E0FB80047AFE7BFF023EDA902AC412D9
:10365300499EC3E89CE99D221237AF22E8FAE9FBB1
:10366300EA75F012A4FAACF075F012EBA42CFB741B
:103673006B2AF582740B3BF583E022121358023B4D
:103683009DC082C083790180F274F0120A638A0AB2
:103693008B0B7A0479011213168A0C8B0DEA450DF4
:1036A300603EEAC333FAEB33FB121D248A088B090D
:1036B300AE08AF09EE4F60237AFE7BFF12135E74F0
:1036C300FE6A700374FF6B601B8508828509831291
:1036D3003EEAE50824021236FB80E1750C00800403
:1036E3007E007F00850A82850B83E50CF0EEFAEFFE
:1036F300FB024953E5082407F508E5093400F509F9
:1037030022902AC412499EC3EA9CEB9D22E493FAB9
:10371300740193FB22121C7C740322125F11E4F0E8
:1037230090891822E88E828F83A3A3A3A3A3A3A3C4
:10373300A31237497401123749A3F0EE2410125F24
:1037430014E4F0A3F022124369A3A3A322C082C00E
:10375300837A007B0080041912377A1237045010E1
:10376300123799C3940550F0E970EC123783800443
:103773007A007B00023B9DEA24010AEB3400FB2222
:10378300EA75F012A4FA75F012EBA428FB74672A09
:10379300FA740B3BFB22EAFCEBFDEC75F012A4FC84
:1037A300A8F075F012EDA4281237AF22FD746B2C2C
:1037B300F582740B3DF583E02274F7120A6374F308
:1037C3001210AE7E007F00023861E50875F017A481
:1037D300F8A9F0126850FAA3E0FBEEF8EFF9E875E8
:1037E300F012A4F8ACF075F012E9A42C1238BC6AFC
:1037F3007003A3E06B603FE50875F017A4F8AAF027
:10380300EA12684FF8A3E0F974011212E5E0687058
:1038130003A3E0696020E50875F017A4F8EAF974DA
:10382300E328FC740C39FD74031212E5AA82AB83FE
:10383300122486E96014E50875F017A4F8A9F0745A
:10384300E128FA740C39FB12181A0508902AD7E4F8
:1038530093F8E508C39850030237CD1238A5902A90
:10386300C4126B965039EEF8EFF91238AEF47003C8
:10387300A3E0F460E68518828519837401F0EEF8FD
:10388300EFF9E875F012A4F875F012E9A42AF91219
:1038930038CD1212E51238DB60C175080080AD0225
:1038A3003ED5EE24010EEF3400FF22E875F012A49A
:1038B300F8AAF075F012E9A42AF91238C122746744
:1038C30028F582740B39F583E022746928F5827434
:1038D3000B39124942740B22E8F0A3E91240081293
:1038E30012FEE922C082C08390034174BCF0A3742A
:1038F30015F0023B9D74F7120A63EAFEEBFF900397
:1039030077E06408601BE0640460168E828F83E0B6
:10391300540364017048123D5B124453E064067023
:103923003D8E828F83A3A3E064FE7003A3E0F46063
:103933002D8E828F83A3A3123F71900368E068707A
:1039430003A3E069700BEE2415F582EF1265D660D0
:1039530008121676E9F508800812167C80F67508B9
:10396300C2EEFAEFFB121D2A022E1074F4120A6340
:103973008A088B098A828B83E0F8A3E0FAE82AFAA3
:10398300E43400FB121D248A0A8B0BAE0AAF0BEE44
:103993004F6063850882850983E0FC7D007900120E
:1039A30026668E828F83A3A3126F0B1216B88E82A4
:1039B3008F83A3A3A3A3123EEA850882850983E02C
:1039C300F8EE28F8EF3400123F79850882850983E1
:1039D300A3E0C0E0EE240D125F03D0E0F01216CA9C
:1039E300EE240E125F03E91255B5E0C0E0EE241198
:1039F300125F03D0E0F0EEFAEFFB02412774F412FA
:103A03000A6374EB1210AE8A088B098C0A8D0BE9DA
:103A1300FE900377E064046005E06408700479C2F3
:103A2300802EA37808121256EE90037E123BDB120F
:103A3300125674051212E5E9F074041212E57401CA
:103A4300F074071212E5E4F09003777402123B3826
:103A5300741502412474F6120A6374EB1210AEEA71
:103A6300FEEBFF1251D76003023AFC7A077B001288
:103A73001D24900339123EEA1251D760788E828F4B
:103A8300831212BA90033A1244561212AE126DCF39
:103A9300C0E0123B08D0E0F0EE2405FAEF3400FB5F
:103AA3008A088B098A82F583E0C0E0123B03D0E0E9
:103AB30012411EE0C0E0123B03A3D0E0123F5E12AE
:103AC30012BA8518828519831212AE88828983E01F
:103AD300C0E074051212E5D0E0F085088285098301
:103AE300E0C0E074041212E5D0E0F074071212E5AE
:103AF300123B3780067910800279017415023F83E7
:103B0300123B08A322900339E0FAA3E0F5838A82EB
:103B1300A3A3A3A322C082C0831251D7600D900335
:103B230039125AE1900339E4F0A3F01215E61217A3
:103B3300BA023B9DE41240081224BC22C082C08317
:103B4300900338E07003121FC41213A0804CC0828C
:103B5300C083900338E09010C27004E4F0802D74A9
:103B630001F0900338E0F460237C41E0C3944150BA
:103B730002E0FCECF8E0C398F0EC75F0E8A4CCA804
:103B8300F075F003A428FD7A801249A67AC27B104F
:103B930079411224A4800312134CD083D082020FE4
:103BA300E274F4120A6374EB1210AE8A088B098C68
:103BB3000A8D0B9003777401123BDB1212567405C6
:103BC3001212E5E9F074041212E57403F07407129B
:103BD30012E5123B37023A53123F6978082274F711
:103BE300120A637C011213B2023EDA74F2120A6300
:103BF30074FC1210AEE9851882851983F0EAFEEB96
:103C0300FF8C0A900375124C8C1215DA8A088B0903
:103C1300EA4509700579CA023D568A828B83A3A3BC
:103C2300A3A3A3A3A3E064FE7003A3E0F470057948
:103C3300C3023D569003751256541218208508820C
:103C4300850983A3A3A3A3A3A3A3A3A3A3E004908E
:103C53000388123EB974021212E57402F0141212B0
:103C6300E5AA82AB831217248A0C8B0DAE0CAF0D21
:103C7300EE4F7003023D4D123D5B1245C87406F0D2
:103C8300A3A882A983900362125B1E124921F0EE5E
:103C93002413125F0374011259607440F0A3E412F9
:103CA30055AEA3A3123D68123F7DEE2411125F03AC
:103CB300E50AF0EEFAEFFB12137CE9FE6003023D26
:103CC3004F9003777409F01236F7AA08FB794B1269
:103CD30024A4850882850983123EAB123F7D90039D
:103CE3006AE0F8851882851983E068600CE0900328
:103CF3006A12400479E11224A4901103123F7190D7
:103D03001105E0687003A3E069601A90033B123F5A
:103D13007D9011051256541216E2901105124C8C27
:103D23007A011249A67A007B049003C2E0F9121DBE
:103D3300E4901105123D60740278081211DDAC089D
:103D4300AD09FA7B041249A880027E10900592E423
:103D5300F0EEF9740402544CEE125F1222E0F508FF
:103D6300A3E0F50922123D6C22123050A32274F510
:103D7300120A6374E21210AE851882851983ECF07F
:103D8300A3EDF0EAFEEBFF890874291212E5E0F5D2
:103D930009742C1212E5E0F50A900377E0640460DD
:103DA30005E06408700579C2023EA3742A1212E585
:103DB300E064FE7003A3E0F4700579C3023EA390B0
:103DC3000377740312400479501224A4742A121244
:103DD300E5AA82AB83794B1224A4851882851983C3
:103DE300123EB2123F7DE50890036AF0742A121264
:103DF300E5123EAB123F7DE509900362123EB974B2
:103E0300CE55094480C0E074121212E5D0E0F0747C
:103E130001250A900388F0740F1212E57402F074FE
:103E23002A1212E5123F7174071212E5E8F0A3E9B2
:103E3300123EF074101212E5123F7D74051212E562
:103E4300E508F0741B1212E5E4F090037D740FF0A3
:103E53007A7D7B0379541224A490037C740FF07A47
:103E63007C7B0379471224A490037CE0C3940F5016
:103E73002374051212E5E0C0E074021212E5D0E0EB
:103E8300F074041212E57401F0041212E5AA82AB75
:103E9300831224C874051212E5AA82AB831224AAE2
:103EA300741E121030022CD712494490036B221255
:103EB300494490037522F0EEFCEFFD7A897B0312EF
:103EC300248C2274F7120A63EB90037FF01215C857
:103ED3008005740D1210307F01020D18123EE5A308
:103EE300E022123F5EA322EAF0A3EBF022123F642A
:103EF300F8A3E0F92274F7120A6374F81210AEEA19
:103F0300FEEBFF7900900377E06408704485188224
:103F130085198374FDF0A374FFF01216B2740212B4
:103F230012E5123EEA74051212E5E4123EE5E0C022
:103F3300E074041212E5D0E0123F59C0E074061297
:103F430012E5D0E0F074071212E5E41240041217F0
:103F5300067408023ED7123F5EE022F08E828F8302
:103F630022123F69E022F0851882851983221249C3
:103F73004422E0F8A3E0F9125F11E8F0A3E9F0228C
:103F83001210307F02020D18C082C083900349745F
:103F93006CF0A37414F09003EF7460F0A37417F043
:103FA30090034D74A2F0A37414F090034F746CF05B
:103FB300A37414F090035174A8F0A37414F0023B9B
:103FC3009D74F4120A6374F91210AE8A088B098C7B
:103FD3000A8D0B851882851983780812125674048A
:103FE3001212E5E9F074051212E5E4F074061212F8
:103FF300E5E412400412138E7407024124E8F0A38F
:10400300E912400822123F69AA82AB832274F41298
:104013000A638A088B098A828B83125F1FEE4F70B3
:104023000302411C9003121251DA60158A828B83BA
:10403300A3A3E0F9EEFAEFFB900313124456122602
:10404300E38E828F83A3A3A3A3A3A3A3A3A3E06469
:104053000270748E828F83A3A3A3A3A3A3E054024D
:1040630070030240EE850882850983A3A3E064E917
:1040730060798E828F83A3A3A3A3A3A3A3A3A3A3E4
:10408300E07014901118E0048E828F83A3A3A3A37E
:10409300A3A3A3A3A3A3F08E828F83A3A3A3A3A30A
:1040A300A3A3A3A3A3E01412411EA3A3A37404F028
:1040B30090111912595AE8F0A3E9126A338B0BEAEB
:1040C300450B70031264118E828F83A3A3A3A3A352
:1040D300A3A3A3A3E0640260128E828F83A3A3A38E
:1040E300A3A3A3A3A3A3E06406702E8E828F83A34E
:1040F300A3A3A3A3A3E0A2E0501F8508828509839D
:10410300A3A3E0F9EEFAEFFB1225CA8E828F83A3F5
:10411300A3A3A3A3A3E054FEF08009124365227472
:104123000D1210307F04020D1874EC120A6374DD53
:104133001210AEEAFEEBFF8C088D0974371212E5FC
:10414300780C121283750A0074051212E5AC82AD65
:104153008312254C74121212E5E0700874151212C2
:10416300E5E0602074051212E5E0A2E6501E8E829F
:104173008F83A3A3A3A3A3A3A3A3A312565412178A
:104183003CE96008790312247402434B740512124C
:10419300E5E0540C64047005750B018003750B0096
:1041A300E0A2E55035750A01E50BA2E0402C12169A
:1041B300B88A108B11A810A911123D5BE068700337
:1041C300A3E069601574051212E5126F12125650BE
:1041D3001225D6E96004790480AC74051212E5E077
:1041E300A2E6502274061212E5E054037018740517
:1041F3001212E5E0540C640C600CE0540C6408608B
:1042030005751001800375100074051212E5E05462
:1042130003F8740268700C126F1212565012253A8A
:1042230002434B740168703AE510A2E05003124355
:104233005374051212E5A882A98374031212E5E8E8
:10424300F0A3E912493885188285198312435DE08A
:10425300C0E074021212E5D0E01240041226BA0242
:10426300434BE8600302434B90035FE0640170102B
:104273008E828F83A3A3A3A3A3A3E070030241D9D8
:1042830074221212E57402124938741A1212E512DA
:104293003F7DE510A2E0500874051212E512435366
:1042A300E50BA2E0506AEE240FF582EF1265D6C04B
:1042B300E074171212E5D0E0F09003141251DA7093
:1042C3000302434B1216B88A128B13A812A9137454
:1042D3001A1212E5E0687003A3E069706B780C12A0
:1042E3001015780A121021780812101DA910740CE9
:1042F3001212E5AC82AD8374211212E5AA82AB835C
:104303009003141244531226E374071210308038BA
:10431300780C121015780A121021780812101D90CB
:104323000375120E18EE2412F582EF126304742340
:104333001212E5AC82AD83740E1212E5AA82AB832E
:104343001225BE740912103074231210300269FE54
:10435300126F12125AEF12254622E8F0A3E9124314
:10436300652212436922F08E828F83A3A3A3A3A3A2
:10437300A32274F7120A63121EB6023EDA74F7120E
:104383000A63121EC8023EDAC082C083121EC20232
:104393003B9D74F7120A63121ECE023EDA74F712C3
:1043A3000A6374091212E5E0F50878081210211265
:1043B3001EDA7401023ED7C082C083121EE6023B9E
:1043C3009DC082C083121EEC023B9D74F7120A63E8
:1043D300121EF2023EDA74F7120A63EAFEEBFF8959
:1043E3000874016508701479001214E4902AE2E459
:1043F30093FC7900EEFAEFFB12145A023EDA74F4DE
:10440300120A6374F91210AEE9FE8A088B098C0A4A
:104413008D0B74131212E51256549005DE1251DA05
:104423006027EE851882851983F074011212E578EE
:1044330008121256EAF8EBF974051212E51240005D
:104443009005DE1244531226E3023FFBFB90034B1D
:10445300E0F8A3E0F58388822274F7120A639010D0
:10446300C5E0F97E00800B1265C2540D6401700132
:10447300190E1246565003E970ED023EDA74F71234
:104483000A639010C6E0F97E00800B1265C2548D5A
:1044930064817001190E1246565003E970ED023E15
:1044A300DA74F2120A63890BE975F006A4240CF599
:1044B30008E5F01236FF8A0CE508250CFAE5093405
:1044C30000FB121D248A0C8B0DAE0CAF0DEE4F605A
:1044D30027AC08AD097900122666123D5BE50BF0A7
:1044E300EE2508F8EF3509F98E828F83A3A3A3A3E2
:1044F300A3A3A3A3A3123F7DEEFAEFFB02544F74D1
:10450300F6120A63EAFEEBFF1214369010C4E0F8C9
:10451300E9C398400990034512565412143CEE2403
:1045230002F8EF125C64900347125B1E900347E0AE
:1045330004F0EEFAEFFB121442850882850983E04A
:1045430002611AC082C08379009003458001091279
:1045530056548A828B83E582458370F2023B9D74B5
:10456300F7120A63EAFEEBFFEE4F60569003451223
:1045730051DA604E888289837A007B00EE6582700F
:1045830003EF6583600FAA82AB831245C8E58245BA
:1045930083602F80E79003451245D4687002EF696A
:1045A3008E828F837008123F719003458003126AD5
:1045B30010123F7DEEFAEFFB12268AEEFAEFFB12A2
:1045C3001D2A023EDA1245CC221249488882898389
:1045D30022124944EE22C082C0839003458004889E
:1045E3008289831251DA600B88828983124C8CECA6
:1045F3004D70EC8A828B83E4F0A3F0E8496006886F
:104603008289838003900345123EEA023B9D74F73F
:10461300120A6390034580048A828B831246514BAE
:1046230060257E0080010E12465650ECEE75F006B2
:10463300A4FCADF0EA2CFCEB3DFDEC2410F582ED7F
:104643001246A670E180047A007B00023EDA125A19
:10465300F3EA221246AFEEC3982274F7120A637D7F
:104663000080010D1246ABEDC3985034ED75F00692
:10467300A4FEA8F0E8FFEA2EFEEB3FFFEE2410F5C0
:1046830082EF1246A670DCED75F006A4FEE8FFEAA1
:104693002EFAEB3FFBEA2411F582EB1265D64CF0C0
:1046A300023EDA1265E269221246AF22126F1CEB58
:1046B3003400F583E0F82274F6120A6312155C7A6B
:1046C300007B008025EAF8EBF9E875F006A4F8AC66
:1046D300F075F006E9A42C125AC8126DDDA3E4129A
:1046E3005BBEF0A3126DE3126F5A902ACC12337E95
:1046F30040D37A007B00801C8A088B0974037808F6
:104703001211DD12557CA374FEF0A30412599EA36B
:10471300E4126F5A902AD612475940DC7A007B0084
:10472300801D8A088B09740378081211DD7409123D
:10473300624E7410126A9574FEF0A304126F5A90BD
:104743002ADC12475940DB902AE0E493900353F0AC
:10475300124763023F86E493F8C3EA98EB9400227E
:104763007CE87D037A107B009003C2E0F9121DDE22
:104773002274F0120A6374F51210AE8A088B098949
:104783000A8C0BE9A2E050147508FC7509FFA2E13D
:104793005005D2E4024836D2E302483612543B7045
:1047A30003A3E06970057900024903AC0A7902AA00
:1047B30008AB09121538E960EDE50AF50C780C121F
:1047C300102179027CFE7DFFAA08AB091251B612B3
:1047D3001030E96003024901E50AC2E5F50A9003D6
:1047E300B5E07051E50AA2E6404B74031212E5AC42
:1047F30082AD83AA08AB0912258EE97032124AD71B
:104803008A0C8B0DA80CA90DE8FEE9FFE849602589
:10481300EE24020A0AEF12308E601AEE2402FCEF35
:104823003400FD74031212E5AA82AB8312248CE5D3
:104833000AD2E5F50A900348E0F50C900368E0F529
:104843000EA3E0F50F780E12101D7D017C0090037E
:1048530048E0F9AA0EAB0F1214F07402121030E9FB
:10486300F8900348E004F0E86003024901E50AA276
:10487300E55004740E80027406C0E074011212E560
:10488300D0E0125F308A0E8B0FAE0EAF0FEE4F608B
:1048930069124921124938888289837401F0747836
:1048A300550AA3126F22E50C126F22A3E508F0E567
:1048B30009124910E4F0E50AA2E5500F740312123D
:1048C300E5AC82AD83E824061249078E828F83A369
:1048D300A374FDF0A374FFF0E50B6015902AE3E4E5
:1048E30093F8E50BC3985009EE2413125F03E50B0D
:1048F300F0EEFAEFFB12137C80067910800279C781
:10490300740B8049FAE93400FB12248C22888289D3
:1049130083A3A3A3A312491C22125C97A322EE2410
:1049230017125F147401F01216B2EE241A125F14F8
:10493300EAF0A3EB22F0126F16340012494222F57B
:104943008312494822E0F8A3E0F922740D121030D3
:104953007F08020D1874F6120A637A007B10126442
:104963001E60089003D47401F0802990067DE064F2
:10497300019011167006E0FC79018004E0FC7903D4
:104983007A007B0012145A902ACA12499A7A007B41
:10499300101249A8023F8612499E22E493FC740137
:1049A30093FD227B009003C2E0F9121DD82274EC20
:1049B300120A638A088B098C0C8D0D890E741412EC
:1049C30012E512539574161212E5E0F510A3E0F503
:1049D3001112173CE960077AFF7BFF024AD490115A
:1049E30015E064026003024AC77900AA08AB091202
:1049F300153EA90E1215328A128B13AE12AF13EEA7
:104A03004F7003024AAF8E828F83A3A3A3A3A3E0B5
:104A130064018E828F83A3A370691256548E828F92
:104A230083A3A3A3A3A3A3E054186043902AE1E4C0
:104A3300938E828F83A3A3A3A3F0EA650C7003EB89
:104A4300650D6014EA650A7003EB650B600AEA659D
:104A5300107003EB6511701F781012101DAC0AADB6
:104A63000BAA0CAB0D121838740212103080089088
:104A73000367126408A3F074FE6A700374FF6B602B
:104A83001D804EA3A3A3E0640360298E828F83A3BA
:104A9300A3A3A3A3E0640470057AFE0249DC8E821B
:104AA3008F83A3A3A3A3A3E0640270089003B4E0DD
:104AB30064027010124AD78B0BEA450B6006AA08F2
:104AC300AB09800DAA08AB0990034912445312267F
:104AD300E30269FE9003751251BC1217FC2274F7AE
:104AE300120A63EAFEEBFF12132EE9700AEEFAEFE5
:104AF300FB12133AE96006EEFAEFFB80047AFE7BC1
:104B0300FF023EDA74F0120A638A0A8B0B8C0E8D55
:104B13000F890975080012173CE979006003024CFC
:104B23007EAA0AAB0B12153EA9091215328A0C8B09
:104B33000DAE0CAF0DEE4F60198E828F83A3A3A32E
:104B4300A3A3E0640270559003B4E064027003020F
:104B53004C7CAA0AAB0B90034F1244531226E31268
:104B630013408A0C8B0DA80CA90DE8497003024C65
:104B73007C88828983A3A3A3A3A3E0A2E0400302CA
:104B83004C7C750C01A2E150687901AC0AAD0BAA0B
:104B93000EAB0F12148AE97064024C7C8E828F83F1
:104BA300A3A3A3A3A3E064037005750C0280528E34
:104BB300828F83A3A3A3A3A3E064016003024C7CBD
:104BC300900375124C8C8E828F83124FE18A0C8B6B
:104BD3000DA80CA90DE84960D1902ADAE493FA886C
:104BE300828983E0C39A50C2A3E06003024C7C80B5
:104BF300B988828983A3A3A3A3A3D2E1F0EE4F6074
:104C03003A8E828F83A3A3A3A3A3A3E05418602B9C
:104C13007508018E828F83A3A3120E18750CFE757F
:104C23000DFF780C12101D7900AC0AAD0BAA0EAB68
:104C33000F1215507404121030803E900368E06523
:104C43000E7004A3E0650F7014902AE2E493FCA9AC
:104C530009AA0AAB0B12145A750801801CA90CACE3
:104C63000AAD0BAA0EAB0F12148AE9700C7508017A
:104C7300A909AA0AAB0B1214E4A908024953E50CCB
:104C83002415F582E50D125F171259742274EA1286
:104C93000A6374F01210AE8A0C8B0D8C088D0974A4
:104CA300261212E5E0F514A3E0F51575120690033C
:104CB300F51251DA6023900375124C8CAA08AB09E4
:104CC3001218268A108B11EA4511600D8A828B8394
:104CD300A3E070057900024FC9E50C241DF50EE52C
:104CE3000D3400F50F850E821251C6F513888289A3
:104CF30083A3A3A3E0FA88828983A3A3A3A3E0F9F0
:104D0300EA2400FEE439FFAA08AB091214EA850E6F
:104D130082850F83125004E029F50BE50AA2E550C2
:104D23000375120E7487550A70177418550A6418A0
:104D3300600FE50C2417F582E50D1265D665126048
:104D4300077901122474808C530A78C3EE94F8EF28
:104D530094FF501D7900EEFAEFFB124FD3601288D7
:104D6300828983A3A3A3A3A3A3E054186003024CE3
:104D7300D7780812101D7D00124FF7121030E9F892
:104D83007403687003024CD7E86003024E42741840
:104D9300550A7003024EF7E50AD2E0F50AA2E45081
:104DA30004D2E1F50AA90A12564D124FD360538873
:104DB300828983A3A3A3A3A3A3E054186044888296
:104DC3008983A3A3A3A3A3E064017036E51045116F
:104DD3006030900375124C8C88828983124FE18A6C
:104DE3000E8B0FA80EA90FE849601788828983A349
:104DF300E0600F851082851183A3126125500302A1
:104E03004CD7E50AF50E780E121021124FEA121054
:104E130030E9702B7C007D0085148285158374FF37
:104E2300F0A3F0850C82850D83A3A3A3A3A3A3A35F
:104E3300A3E06003124C81A90B12564D121EE085AC
:104E43001482851583E0F47003A3E0F460399003C2
:104E5300B4E064027003024CD7125386E0FAA3E075
:104E630012444F1226E3EA65087003EB65096003F9
:104E7300024CD7EEFAEF12444F1226E385148285D3
:104E83001583EAF0A3EBF0780812101D7D01124F91
:104E9300F7121030A90AEEFAEFFB12153E8A088BBF
:104EA30009A808A909900368E0687003A3E0696092
:104EB30003024FBAEEFAEFFB1213408A088B09A8DC
:104EC30008A909E849606E88828983A3A3A3A3E0A4
:104ED3006401600D88828983A3A3A3A3E0640270A5
:104EE30054851882851983AC82AD83EEFAEFFB12E9
:104EF300258E8055900361E0600FE50AF50E780E6C
:104F0300121021124FEA121030E50AF50E780E1234
:104F1300102179027CFE7DFFEEFAEFFB1251B612EF
:104F23001030E96003024E4285148285158374FFB5
:104F3300F0A3024E891216B2EAFCEBFD85188285B6
:104F43001983AA82AB8312248C850C82850D83A3DB
:104F5300A3A3A3A3A3A3A3E06401700F124C8174C2
:104F6300081212E5AA82AB8312248C125190125DAF
:104F73009C4430F508780812102174011212E5855B
:104F83008208858309780812101D740B1212E585B7
:104F93008208858309780812101DE513F50878083F
:104FA3001210217900EEFCEFFD12564D1214847499
:104FB30006121030024CD7125190125F06125004A1
:104FC300E50BF01216CA74101210307F0E020D1882
:104FD3001215328A0E8B0FA80EA90FE84922A3A33C
:104FE300125AF3121826227901AC08AD09125AE8B5
:104FF3001251B622AC0BA913125AE81214F0740220
:1050030022125DA4A3A3A3A32274F0120A6374F073
:105013001210AE8A0C8B0DECFAEDFB750F089003A2
:10502300F51251DA601412611E8A828B83E5824580
:10503300836007A3E0700302518B12519034001276
:1050430051C6F50B88828983125199E0FBEC240049
:10505300FEE43BFF88828983A3A3125199A3A3E0B3
:10506300FBECF508E43BF50988828983A3A3A3A39A
:10507300A3A3A3E0F50EE50AA2E45003750F10A263
:10508300E550067408250FF50F748F550A700FE568
:105093000C2417F582E50D1265D6650F60087901BA
:1050A30012247402518B530A707800E50AA2E4506B
:1050B300221251901265D62408FCA3E03400FD743B
:1050C300081212E5AA82AB8312248C7808E50AC27F
:1050D300E4F50AE50AA2E550281251901265D62894
:1050E300F8A3E03400F9E82408FCE93400FD85184E
:1050F30082851983AA82AB8312248CE50AC2E5F563
:105103000AAC0EA90BEEFAEFFB1214F6E9F87403DE
:10511300686075900368E06E7003A3E06F605EE8FB
:105123007054E50AF50F780F1210211251A71210CF
:1051330030E97054780A12102174011212E5858245
:105143000C85830D780C12101D740B1212E58582E9
:105153000C85830D780C12101DE50BF50A780A12E5
:105163001021A90EAC08AD09EEFAEFFB12148474FA
:10517300061210308012740468700D80B7780A121A
:1051830010211251A71210307410024950E50C245B
:105193001DF582E50D22A3A3A3E0FC88828983A3E6
:1051A300A3A3A322790112538D125F171251BC12CC
:1051B30051B6221214AE740122E0FCA3E0FDAA084A
:1051C300AB0922F5831245CCA3E0F50A88828983D3
:1051D300A3A3E022900339125B4F2274E8120A63FF
:1051E30074F51210AEEAFEEBFF8C088D0989147476
:1051F300231212E5E0F50F74241212E5E0F512A371
:10520300E0F51374261212E5E0F516A3E0F5177422
:10521300281212E5E0F50EA90F1214FC8A108B1167
:1052230074011212E57408F0E50EA2E45003741041
:10523300F0E50EA2E55004E02408F08518828519F4
:1052430083AA82AB831217248A0C8B0DEA450D7057
:105253000302536DEA2417F582EB12537F1216B241
:10526300E50C241AF582E50D125F06123EEA74037B
:105273001212E5AC82AD83AA10AB1112258EE96040
:105283001D12537774031212E5A882A983E50C2437
:1052930018F582E50D125F06E8F0A3E98024E50E18
:1052A300A2E4501FE5106E7003E5116F70151253E1
:1052B30077E50C2418F582E50D125F06E512F0A3DD
:1052C300E513F0125386125395850A82F58374020F
:1052D300F0A3E50E12539DE50FF0EE850A82850BD0
:1052E30083A3A3A3F0EF850A82850B83A3A3A3A3C0
:1052F30012539DA3A3A3E508F0E509850A82850B54
:1053030083A3A3A3A3A3A3F0AA10AB111214EAE9E6
:105313002514850A82850B83A3A3A3A3A3A3A3F0C8
:10532300750800E50EA2E45011AC12AD13E50A2492
:1053330008FAE50B124909750808E50EA2E55014B1
:10534300AC16AD17E50A2508F8E50B3400F9E82497
:1053530008124907850C82850D83A3A3E510F0A3EA
:10536300E511F0AA0CAB0D12137C740B1210307FF5
:1053730010020D18E50C2416F582E50D125F177463
:1053830001F02212538D125F1722E50C126F1DE5F7
:105393000D22E0F50AA3E0F50B22F0850A82850BC6
:1053A30083A3A32274F2120A638A088B09ECFEED2D
:1053B300FF890A790012543B7003A3E069700479F2
:1053C300018073750B01900368E065087004A3E026
:1053D3006509601F750B00780B121021A90AEEFCFA
:1053E300EFFDAA08AB091217787401121030E9F522
:1053F3000B80417900EEFAEFFB121532EA4B602B7A
:105403008A828B83A3A3A3A3A3A3E05418601C7570
:1054130008FE7509FF780812101D8A828B83A3A3E7
:10542300120E18126D3212103080097901EEFAEF64
:10543300FB121412A90B801412153E8A0C8B0DA8B3
:105443000CA90D900368E068221210307F06020D4C
:105453001874F4120A6375085175090E7A10126AEA
:105463003A8B0BEA450B7003124763900353E01426
:10547300F0700C902AE0E493900353F012154A7EE7
:10548300007F00806C850882850983A3A3A3A3E022
:105493006059F46056E5082404F582E509126402B4
:1054A3007049850882850983A3A3A3A3A3E06403AA
:1054B30070197902850882850983124C8C850882CC
:1054C300850983A3A312565412148A850882850979
:1054D30083A3A3A3A3A3E0640160108508828509C5
:1054E3008374FEF0A3041255AEE4F01238A512360D
:1054F300F7902ACE126B96408C7E007F0080391283
:1055030016588E088F09740378081211DD74C925A3
:1055130008FC740F3509FD7A967B14121646EA4B84
:1055230070DD8E088F09740378081211DD12557C23
:10553300126DDDE4F01238A5902AD6E493F8C3EE99
:1055430098EF9400501B8E088F097403780812118A
:10555300DD125584E82407F582E912640270D680CF
:10556300A17E007F00800A12558F600214F012386A
:10557300A5126B9340F102412712558488828983D7
:105583002274C92508F8740F3509F922EEF8EFF9EA
:10559300E875F006A4F8AAF075F006E9A42AF974F0
:1055A3006928F582740F39F583E0221255B5A3A358
:1055B300A322F0850882850983A3A32274F7120A24
:1055C3006374E11210AEECFEEDFF750800EE4F6060
:1055D300728A828B83E0241C1264331251DA606373
:1055E3008A828B83125654851882851983AC82ADC7
:1055F30083EA241BF582EB126304EA241CF582EB95
:1056030012565012169A740B1212E5125658700362
:10561300A3E069702E74021212E5E0640170247431
:105623001D1212E5124453E064017017741D121227
:10563300E5124455A3A3E0F88E828F83E0687003DC
:10564300750801A908741F023ED712538D3400F563
:1056530083125AF32212304CE0682274F4120A6364
:10566300E97024790090034D1244531226E38A0A09
:105673008B0BAE0AAF0B74FE6E700374FF6F701A60
:10568300902ADDE4936013790190034D1244531281
:1056930026E38A0A8B0BAE0AAF0B1216E80239F91E
:1056A30074F6120A6374F31210AE121C9A8A088BF2
:1056B30009AE08AF09900368E06E7003A3E06F6062
:1056C300E91216BEEA6E7002EB6F60DEEEFAEFFBD4
:1056D30012173CE970D4EE4F60D085188285198388
:1056E300E4F0041212E5EEF0A3EF125706E970BAE4
:1056F30074FE6E700374FF6F60B0EEFAEFFB740D0F
:10570300023F83124008121C8822C082C0831216F3
:10571300E8023B9D7F0A020D1874F2120A63EAFE47
:10572300EBFF8C0A8D0B8908740E1212E5E0F50964
:1057330074FC6E700374FF6F7005790002544F7927
:105743000012153E8A0C8B0DAE0CAF0D900368E072
:105753006E7003A3E06F7006E509A2E650DCA909A9
:10576300126C20706179007AFE7BFF126C207056F8
:105773007418550970030258537800790080031296
:105783003246902ACE12323D4003025853E8FAE9DA
:10579300FBEA75F007A4FAACF075F007EBA42CFB59
:1057A30074572AF582740E3BF583E0541870D0E8E1
:1057B30075F007A4F8AAF075F007E9A42AF9745163
:1057C30028F8740E39F988828983A3A3A3A3A3A31A
:1057D300E05418600974185509700302573D888214
:1057E3008983EEF0A3EFF074FE650A700474FF651D
:1057F3000B600312597A88828983A3A3A3A3A3A36B
:10580300E509F0A2E0500D88828983A3A3A3A3A393
:10581300A3D2E2F07401650888828983A3A3A3A3BA
:10582300A37038740112599EE054186028902AE13D
:10583300E49388828983A3A3A3A312596812182629
:105843008B0DEA450D600302573D780079008039DE
:10585300790202573F900367E080D7E06401700349
:1058630002573D88828983A3A3A3A3A3A3E054186B
:105873006007902AE1E4938004900366E0124910E4
:10588300E508F002573D123246902AD7E493FAC353
:10589300E89AE99400400302573D7A007B00804B6D
:1058A300EAFCEBFDEC75F007A4FCAEF075F007ED38
:1058B300A42EFD74532CF582740E3DF583125F1FE5
:1058C300E8FCE9FDEC75F017A4FC85F00975F01709
:1058D300EDA42509FD74E12CF582740C3DF583E0FC
:1058E3006E7003A3E06F609E12377A902ACE123750
:1058F3000740AD12499AEC6A7002ED6B7088E87547
:10590300F017A4F8AAF075F017E9A42AF974E128AE
:10591300FE740C39FF7C177D007900EEFAEFFB1261
:1059230026668E828F8312598090037512595AA36B
:10593300A3A3A3A3A3E8F0A3E91259607401F0EEB3
:10594300240E125F03740112598812080BEE240D02
:10595300125F03E8025885123D6CA3A322F0EE24E4
:105963000F125F1422F0125971AA0AAB0B22900393
:1059730075E0FCA3E0FD2288828983A3A3E50AF0F6
:10598300A3E50BF022F012598D22902ADAE4932436
:1059930001F8E43400F97A027B002212491CA322A5
:1059A30074ED120A638A088B09890E125AD14005D5
:1059B3007905025A9F121F28AA08AB09125BA3900C
:1059C3002ACC125AA2650A7003E9650B70077AFEA6
:1059D3007BFF125BA3902ACCE4125AAAE50A98E54E
:1059E3000B994003025A9D125AAE6012E50A75F0F4
:1059F30006A4F875F006E50B125AF9121D2AE50EF6
:105A03006018E50A75F006A4F8AAF075F006E50B30
:105A1300125B25701A7901025A9FE50A75F006A4F4
:105A2300F8AAF075F006E50B125B06E4F0A3F0E5C7
:105A33000A75F006A4F8AAF075F006E50B125AC62B
:105A4300A3125DB288828983A3AA82AB83125B14FB
:105A53008A828B83E0603F125AAE603A8E108F11B8
:105A63007512007810121019E50EC333FCE433FDF0
:105A7300E50A75F006A4F50AA8F075F006E50BA48F
:105A830028F50B746D250AF582740F350B125652E7
:105A9300123718121030790080027907026C36121F
:105AA300339FE822902AC41265BD22E50A75F006E9
:105AB300A4F8AAF075F006E50B125B01F8A3E0F970
:105AC300E84922A42A125C5A88828983A322ECFE25
:105AD300EDFF902AD8E493F8E9C39822F583125A8C
:105AE300F3121D2A22E50C126F1DE50D3400F58318
:105AF300E0FAA3E0FB22125B01FAA3E0FB22125BB4
:105B030006E022A42AF9746D28F582740F39F5830F
:105B130022E50EF0901117125B1E22E08882898322
:105B2300F022125C7EF50CE93400F50DE50EC3336B
